:100000000C94A0040C94BD040C94BD040C94BD0489
:100010000C94BD040C94BD040C94BD040C94BD045C
:100020000C94BD040C94BD040C94AC2C0C947E2D4B
:100030000C94EF220C94BD040C94BD040C94BD04EC
:100040000C94BD040C94BD040C94BD040C94BD042C
:100050000C94BD040C9457230C94BD040C94BD0463
:100060000C94BD040C94BD040C94BD040C94BD040C
:100070000C94BD040C94BD040C94BD040C94BD04FC
:100080000C94BD040C94BD040C94BD040C94BD04EC
:100090000C94BD040C94BD040C94BD040C94BD04DC
:1000A0000C94BD040C94BD040C94BD044F05520582
:1000B000550558055B055D0560054E0754075C074F
:1000C00062076C07770781078C07B607BB07C50770
:1000D000B907BE07C307C1078308850890088708CA
:1000E00089088B088D088F08920894089608A10843
:1000F00098089A089C089E08A008A3088E188E18D5
:10010000C818C818FD181D198A1AE91A5F19E91AC2
:100110000F1A0F1A821AE91AE91AE41A1C1A1C1A81
:100120001C1A1C1A1C1A1C1A1C1A1C1A1C1A1C1A1F
:100130001C1A1C1A1C1A1C1A1C1A1C1A2E1A3B1ADE
:10014000421A491A531A781B781B8A1B8A1B811B77
:100150008A1B8A1B8A1B781B781B861B8A1B8A1B9F
:10016000861BEB2D122E042F122E042F5E2E812EB5
:10017000042FD72EE62E07634236B79BD8A71A392D
:10018000685618AEBAAB558C1D3CB7CC5763BD6DE5
:10019000EDFD753EF6177231BF000000803F05A8E7
:1001A0004CCDB2D44EB93836A9020C50B9918688DC
:1001B000083CA6AAAA2ABE000000803F6572676FAD
:1001C000646F785F657A2F653737316662346261B4
:1001D0003932633632623837306538204020302E6D
:1001E000352E3236342D362D67376339643561004C
:1001F0006572676F646F785F657A2F653737316630
:1002000062346261393263363262383730653820A1
:100210004020302E352E3236342D362D6737633957
:10022000643561000000F0A101000251E000E1002E
:10023000115000001E00340004003300006FAE00B7
:100240001F00360012001400006703512000370021
:1002500008000D00E3002C002100130018000E0020
:10026000E200AD0022001C000C001B000000AC00EE
:1002700039002B00000029000000AB0002532800C9
:1002800000004C000000A900230009000700050041
:100290000000490024000A000B001000E600AA003C
:1002A0002500060017001A00E7002A0026001500A6
:1002B000110019000067045127000F0016001D00EF
:1002C000006FA80001000251E400E50000000000FA
:1002D0000100010001000100000000000100140005
:1002E00004001D000100010001001A0016001B009F
:1002F00001000100010008000700060001000100E4
:10030000010015000900190001000100010017009B
:100310000A000500000001000100010000000100CA
:1003200000000100010001000000010000000100C8
:1003300001001C000B00110000000100010018006A
:100340000D0010000100010001000C000E0036003D
:1003500001000100010012000F0037000100010040
:10036000010013003300380001000100010001000A
:1003700001000100105000004500010001000100D3
:10038000000000003A0038001E023802010001009F
:100390003B0031001F023102010001003C0034002B
:1003A00020023402010001003D002D0021022D0237
:1003B000010001003E003700220236020000010069
:1003C00001003300000001000000010001003302C1
:1003D00000000100000001003F0036002302370248
:1003E0000000010040002E0024022E020100010046
:1003F00041003500250235020100010042002F00B6
:1004000026022F02010001004300300027023002C3
:100410000100010044000100010001000000000093
:1004200001000100010001000000000001000100C6
:10043000010001000100010001004A00500001001C
:10044000010001000100520051004E0001000100B6
:1004500001004D004F004B000100010001000100B0
:100460000100010000000100010001000000010086
:1004700000000100010058000000630000000100BE
:1004800053004800460047000000010001005F00E3
:100490005C00590001000100620060005D005A002C
:1004A00001000100010061005E005B00010001002D
:1004B00054005500560057000100010001000100E2
:1004C0000100010000000000010001000100010026
:1004D0000000000001000100010001000100F60021
:1004E0000100F700F20001000100F5000100F0003A
:1004F000F100FA000100F4000100F800F300F90037
:1005000001000100010001000100010000000100E4
:1005100001000100000001000000010001000100D5
:100520000000010000000100D65C01000100010094
:1005300000000100D75CC15CFB00BD5C0100010054
:10054000D85CC25CFF00BE5C01000100D95CBA5CF3
:10055000FE00BB5C01000100DA5CFC00FD00D55C24
:100560000100010001000100010001000000000085
:1005700000000000000000002A2B280000000000FE
:100580000000000000000000000000290000000042
:100590002C1E3420212224342627252E362D3738B0
:1005A000271E1F202122232425263333362E3738B9
:1005B0001F0405060708090A0B0C0D0E0F10111277
:1005C000131415161718191A1B1C1D2F3130232D43
:1005D000350405060708090A0B0C0D0E0F10111241
:1005E000131415161718191A1B1C1D2F3130354CF2
:1005F00000000000000000000000000000000000FB
:1006000000000000000000000000000000000000EA
:1006100000010101010101000101010100000000D0
:1006200000000000000000000000010001000101C6
:1006300001010101010101010101010101010101AA
:10064000010101010101010101010100000001019D
:10065000000000000000000000000000000000009A
:100660000000000000000000000000010101010086
:100670006801F000B40078005A007F3F1F64321414
:10068000643214783C1E1E140A05000000000001AC
:100690000101010101010101020202020202020242
:1006A0000203030303030303030404040404040513
:1006B00005050505060606060607070707080808D4
:1006C000080909090A0A0A0A0B0B0B0C0C0C0D0D80
:1006D0000D0E0E0F0F0F1010111111121213131413
:1006E00014151516161717181819191A1A1B1C1C89
:1006F0001D1D1E1F1F2020212222232425252627E1
:100700002728292A2B2B2C2D2E2F2F303132333412
:100710003536363738393A3B3C3D3E3F404142431F
:1007200044464748494A4B4C4D4F505152535556F9
:1007300057585A5B5C5E5F606263646667696A6CA7
:100740006D6E707173747678797B7C7E8081838422
:1007500086888A8B8D8F91929496989A9B9D9FA163
:10076000A3A5A7A9ABADAFB1B3B5B7B9BBBDBFC169
:10077000C4C6C8CACCCFD1D3D6D8DADCDFE1E4E630
:10078000E8EBEDF0F2F5F7FAFCFF040330000000AF
:1007900016034500720067006F0044006F00780088
:1007A000200045005A000000160345007200670053
:1007B0006F0044006F007800200045005A000000E0
:1007C0000403090409026D00040100A0FA090400F1
:1007D000000103010100092111010001224000076D
:1007E00005810308000A0904010001030102000950
:1007F0002111010001224D000705820308000A09AA
:100800000402000103000000092111010001223649
:10081000000705830308000A090403000103000020
:10082000000921110100012239000705840320007D
:10083000011201100100000008EDFE071301000184
:1008400002030105010906A101050719E029E715C1
:1008500000250195087501810205081901290595F2
:10086000057501910295017503910105071900298C
:10087000F71500250195F875018102C00501098071
:10088000A10185021601002603001A81002A8300B7
:10089000751095018100C0050C0901A101850316A1
:1008A0000100269C021A01002A9C02751095018104
:1008B00000C005010902A1010901A10005091901F2
:1008C000290515002501950575018102950175031E
:1008D00081010501093009311581257F95027508CF
:1008E000810609381581257F950175088106050C5B
:1008F0000A38021581257F950175088106C0C0055B
:10090000010906A101050719E029E7150025019550
:1009100008750181029501750881010508190129F1
:10092000059505750191029501750391010507195A
:100930000029FF150026FF00950675088100C000FC
:1009400011241FBECFEFDAE0DEBFCDBF11E0A0E083
:10095000B1E0E2EFF5E602C005900D92AC3DB107C3
:10096000D9F723E0ACEDB1E001C01D92AB3BB2077B
:10097000E1F70E94D1290C94F7320C9400001092F8
:10098000B9008AE08093B800089594EA9093BC007F
:100990009091BC0097FFFCCF9091B900987F983060
:1009A00021F0903111F081E008958093BB0084E83C
:1009B0008093BC008091BC0087FFFCCF8091B90080
:1009C000887F883111F0803471F780E0089584E9E0
:1009D0008093BC008091BC0084FDFCCF089580937F
:1009E000BB0084E88093BC008091BC0087FFFCCFF3
:1009F0009091B900987F81E0983209F480E00895E1
:100A000084E88093BC008091BC0087FFFCCF80917C
:100A1000BB00089580B38C7080BB81B3836F81BBB2
:100A2000089584B1807F84B985B1807F85B98AB10A
:100A3000837F8AB98BB1837F8BB93E98469808959E
:100A4000CF93E82F873008F58091000181113AC0DB
:100A5000CE2F80E40E94C50480930001811112C052
:100A600082E10E94EF048093000181110BC081E0BC
:100A700090E001C0880FCA95EAF780950E94EF04C4
:100A800080930001CF910C94E70490E0FC0137972C
:100A9000E730F105B8F4EA5AFF4F0C94A932209AD6
:100AA000289810C0219A29980DC0229A2A980AC025
:100AB000239A2B9807C0529A01C0539A5B9802C0A0
:100AC0003E9A4698CF910895CF93873018F580913C
:100AD0000001811128C080E40E94C50480930001B8
:100AE000882311F0C0E012C083E10E94EF048093DC
:100AF00000018111F7CF81E40E94C50480930001B9
:100B00008111F0CF0E940005C82FC0950E94E70414
:100B10008C2F0AC09FB18FB1807F86958695937088
:100B2000892B809501C080E0CF91089508950C94A1
:100B300096050E94E306809300010E9411050E9421
:100B40000A052DED31E0E1E3F2E04EE04E0F1192A7
:100B500080E090E0D901A80FB91F1C920196863061
:100B60009105C1F72A5F3F4F4E13F1CF0C94F50A60
:100B70000E94E306809300010E9411050E940A056D
:100B8000E1E3F2E08EE08E0F11928E13FDCF089517
:100B900026E0829FC0011124FC01E352FE4F20E0B9
:100BA00030E080E041E050E09081992319F09150CD
:100BB000908307C0BA01022E01C0660F0A94EAF7BB
:100BC000862B2F5F3F4F31962630310569F7089508
:100BD00096E0699FB001112420E030E090E04FE002
:100BE000FC01022E02C0F595E7950A94E2F7E0FFBA
:100BF00006C0F901E60FF71FE352FE4F40832F5F57
:100C00003F4F2630310561F70895CF92DF92EF9282
:100C1000FF920F931F93CF93DF938091000188235E
:100C200079F08091DC018F5F8093DC01811108C035
:100C30000E94E30680930001811102C00E947506A4
:100C400081E3C82E82E0D82E98E3E92E92E0F92EB7
:100C5000C0E08C2F0E94200507E00C0F802F0E941F
:100C600020058C2F0E94C805182F8C2F0E94640528
:100C7000F6019081D12FD095D9238123D82B6C2FC9
:100C80008D2F89270E94E805F601D1936F01802FEF
:100C90000E94C805182F802F0E946405F7019081DB
:100CA000D12FD095D9238123D82B602F8D2F892741
:100CB0000E94E805F701D1937F010E941105CF5FE3
:100CC000C73039F60E94F70A81E0DF91CF911F917A
:100CD0000F91FF90EF90DF90CF900895E82FF0E014
:100CE000EF5CFD4F80810895089556985E98259891
:100CF0002D9826982E9827982F988FEF90E0909314
:100D000089008093880090938B0080938A00909351
:100D10008D0080938C00259A2D9A2FEF80E792E02A
:100D2000215080409040E1F700C00000269A2E9AA2
:100D30002FEF80E792E0215080409040E1F700C023
:100D40000000279A2F9A2FEF80E792E021508040F1
:100D50009040E1F700C0000025982D982FEF80E724
:100D600092E0215080409040E1F700C000002698BA
:100D70002E982FEF80E792E0215080409040E1F7DD
:100D800000C0000027982F9856985E9825982D98B7
:100D900026982E9827982F98089589EA80938000A6
:100DA00089E08093810024982C983F988AB18F7CA9
:100DB0008AB96E98479A8BB180638BB9769A0E94F4
:100DC00075060C943F0780E28093000180913F02FA
:100DD00081110EC00E94BF0481E080933F022FEF7B
:100DE00083ED90E3215080409040E1F700C0000087
:100DF00080E40E94C5048093000181112EC00E94EE
:100E0000EF0480930001811128C00E94EF048093B9
:100E10000001811122C08FE30E94EF048093000142
:100E200081111BC00E94E70480E40E94C5048093E6
:100E30000001811112C08CE00E94EF048093000138
:100E400081110BC00E94EF0480930001811105C045
:100E50008FE30E94EF04809300010E94E7048091D9
:100E600000010895611108C0FC018281882321F0EE
:100E700080EF91E00E94F20A80E090E008950895EA
:100E8000FC01E35DFC45E830F10508F053C0DB01EF
:100E9000E35AFF4F12968C910C94A932882309F4DF
:100EA0004AC00E94F12144C0882309F444C08CEB5D
:100EB00091E00E94F20A3CC08823E9F181E00E949F
:100EC000381136C08823B9F10E94C61181E00E9412
:100ED00038114FEF60E009C0882369F10E94C61104
:100EE00081E00E94381140E060E880E01FC0882364
:100EF00011F10E94C61181E00E94381140E065EABC
:100F000014C08823C1F00E94C61181E00E943811EC
:100F100040E860E080E80AC0882369F00E94C611BA
:100F200081E00E94381140E060E08FEF0E949E0F48
:100F300080E0089581E00895CF92DF92EF92FF92D2
:100F40006B017C010E94A12156985E9825982D98EE
:100F500026982E9827982F9890E0FC013197E7303B
:100F6000F105A8F4EB59FF4F0C94A932259A2D9A5C
:100F70000EC0259A2D9A269A2E9A09C0259A2D9A46
:100F800004C0259A2D9A269A2E9A279A2F9AC7013D
:100F9000B601FF90EF90DF90CF90089581E0089523
:100FA0000C9440070E94661B2FEF84E39CE02150C5
:100FB00080409040E1F700C000000C947D23FF9238
:100FC0000F931F93CF93DF938C01FC01C081D181DC
:100FD00080919102811113C08281882349F0CE0152
:100FE0000E949720F82E682FCE010E943A2004C05C
:100FF000CE010E946A20F82EBE018F2D04C0CE01C2
:101000000E949720BE010E940D0BEC01B8010E94C6
:10101000D007882309F486C2B801CE010E94800D52
:10102000882309F47FC2B801CE010E94CF0D882326
:1010300009F478C2C23CFCE5DF0741F4F801828183
:10104000882309F46FC20E941E116CC2C33C8CE558
:10105000D80708F015C1CB3B9CE5D90761F4F8012E
:101060008281882309F45EC20E9468218272E1F0C5
:101070000E94BD1157C2CC3BECE5DE07C0F0CE3B71
:101080009CE5D90709F4CDC008F0DFC0CC3BFCE5F6
:10109000DF0709F0CEC0F8018281882309F442C23B
:1010A0000E946821827221F30E94B3113BC2C531B4
:1010B000FCE5DF0708F07EC0C2308CE5D80708F4F5
:1010C00052C0F8018281882309F459C00E9412227B
:1010D000811102C00E94F1210E94252290E090938C
:1010E000AD038093AC03FE01E350FC45E231F10512
:1010F00030F4E459FF4F8091AC030C94A9328091F5
:10110000AC03816027C0826025C0846023C08061F9
:1011100021C080621FC080641DC080681BC08460C5
:10112000886018C08E7F16C08D7F14C08B7F12C060
:101130008F7E10C08F7D0EC08F7B0CC08F770AC052
:101140008B7F877F07C087FB222720F991E09227BA
:1011500090FB87F98093AC038091AC030E94292215
:101160000E94661BDFC1C1159CE5D90781F0C13023
:10117000DC45A9F081E08093450280934602C801D6
:10118000DF91CF911F910F91FF900C94CE07F80142
:101190008281882309F4C6C10E94D207C3C1F80125
:1011A0008281882309F4BEC18091300381608093DD
:1011B0003003B8C1C531FCE5DF0739F50E9468216D
:1011C000282FF80182814091030150910401882366
:1011D00079F02A7A91E009F490E09093400291111D
:1011E00002C069E201C065E3CA010E948A220AC006
:1011F00080914002811102C069E201C065E3CA0129
:101200000E9495220E9435218DC1CA3BDC4509F020
:10121000B1CFF8018281882309F484C10E94FA11B8
:1012200081C1F8018281882309F47CC10E94C01029
:1012300079C1CD3BDC4509F09DCFF801828188233F
:1012400009F470C10E94A8106DC1F8018281C03CF0
:10125000FCE5DF0731F4882309F464C10E94F11032
:1012600061C1C13CDC4530F4882309F45BC10E94B4
:10127000DF1058C1882309F455C10E94031152C1DF
:10128000C93CECE5DE0749F4F8018281882309F4C2
:1012900049C188E10E94381145C1CA3CFCE5DF071D
:1012A00008F088C0C53C8CE5D807B1F4F80182810C
:1012B000882309F437C10E94790F663071058105D2
:1012C000910540F00E94790F683071058105910504
:1012D00008F4EACE86E0DECFC63C9CE5D90728F5C7
:1012E000C33CECE5DE0739F4F8018281882309F478
:1012F00019C181E0CFCFC43CDC4509F03BCFF801F8
:101300008281882309F40EC10E94790F6230710531
:101310008105910540F00E94790F653071058105C6
:10132000910508F4C1CE82E0B5CFF8018281C73CB7
:10133000FCE5DF07A1F4882309F4F4C00E94790FCB
:101340006F3071058105910540F00E94790F64317D
:1013500071058105910508F4A7CE8FE09BCFC83CAD
:10136000DC45A0F4882309F4DDC00E94790F6930C0
:1013700071058105910540F00E94790F6E3071056D
:101380008105910508F490CE89E084CF882309F483
:10139000C9C00E94790F653171058105910540F042
:1013A0000E94790F673171058105910508F47CCEA3
:1013B00085E170CFCC3CECE5DE0781F5F801828158
:1013C000882361F0109246020E94212390934402E8
:1013D0008093430280E20E944318A4C00E946821C7
:1013E00081FF05C081E08093450280934602809191
:1013F000460281110FC080914302909144020E94E5
:101400002D23883C910530F487E20E94D51687E2AF
:101410000E94E41780E20E944A1884C0CD3CFCE59B
:10142000DF0708F04AC0CA3C8CE5D807B1F4F801E0
:101430008281882309F476C00E94790F6931710591
:101440008105910540F00E94790F62327105810596
:10145000910508F429CE89E11DCFCB3CDC4509F08C
:1014600089CEF8018281882351F0109245020E94B2
:101470002123909342028093410282E0ACCF0E94EC
:10148000682185FF05C081E0809345028093460274
:101490008091450281110FC08091410290914202DA
:1014A0000E942D23883C910530F486E20E94D516D7
:1014B00086E20E94E41782E0AECFC03DECE5DE0795
:1014C00031F4F8018281882369F180E009C0C13DCF
:1014D000FCE5DF0741F4F8018281882319F182E0FD
:1014E0000E946F2A1FC0CD3CDC4509F043CEF801B5
:1014F0008281811167CF8091460281118BCF8091CB
:101500004302909144020E942D23883C910508F0EB
:1015100081CF80E20E944A1888E20E94D51688E2B4
:101520000E94E41780E0DF91CF911F910F91FF900F
:101530000895CF93282F30E0F901E059FA4FC49174
:10154000F901E051FA4F2491222359F081EE0E94D3
:10155000D5168C2F0E94D5168C2F0E94E41781EE91
:1015600004C08C2F0E94D5168C2FCF910C94E417B9
:101570000F931F93CF93DF93EC01062FFE0184910D
:10158000882359F19E012F5F3F4F813041F4E901DB
:10159000F9011491812F0E94D516812F0DC0823040
:1015A00031F4E901F90184910E94D5160AC0833013
:1015B00031F4E901F90184910E94E41702C00E940C
:1015C000990A2196802F8823C9F2EFE9FFE031972D
:1015D000F1F700C000008150F6CFDF91CF911F914D
:1015E0000F91089560E00C94B80A0C94CD060C9409
:1015F0009705282F2F7041F0822F90E02A3010F4A9
:101600004D9608950697089587E290E0089508950D
:101610000C94070B0C94080B089596E0799FF00149
:10162000112494E5899FE00DF11D1124E60FF11DB1
:10163000EE0FFF1FE85DFD4F859194910895880F8F
:10164000991FFC01EC5DFD4F859194910895CF9316
:10165000DF930E940D0B0E94D60CEC01811520E552
:101660009207F0F5811530E4930708F021C1883E18
:10167000910500F5803E910508F094C1883A9105E6
:1016800070F4853A910508F0A3C08130910509F402
:1016900089C108F440C1049708F084C13CC18D3B66
:1016A000910508F4A0C0803C910508F434C1805C29
:1016B0009109F0C08115904258F4C11581E0D80716
:1016C00008F070C1C03FD10508F425C1D0656AC1DA
:1016D000C11590E3D90708F0E1C0CE019F70DAC0D0
:1016E000811525E5920708F043C0811534E593077D
:1016F00008F0F5C0811542E5940708F5C11581E5AC
:10170000D80708F0D8C02C2F237081E090E002C0E9
:10171000880F991F2A95E2F79C689E0174E0369520
:1017200027957A95E1F72370922BCF70C695C695D1
:1017300040E2C49FE0011124C82BD92B33C1869508
:1017400086959E0123703327C115D34508F0B8C094
:1017500040E2849FC0011124C1E0D0E002C0CC0F60
:10176000DD1F2A95E2F78C2B9D2BEC01DC681AC15A
:1017700081152AE5920798F4811539E5930708F059
:10178000B9C08115964508F4AFC0C11588E5D807E2
:1017900008F4C1C0DC2FCC27C06FD06A03C1C115CB
:1017A0009BE5D90708F4B7C0C1152CE5D20708F4AA
:1017B000AFC0CE0190568115904208F0ACC08D2F7D
:1017C0008F710E94530DDD27D0628F71D82BEAC034
:1017D000853A910509F4A2C0863A910509F0A1C0A5
:1017E000C2E8D0E4DFC0883A910509F49DC0893A87
:1017F000910509F49CC08A3A910509F49BC08B3A83
:10180000910509F49AC08C3A910509F499C08B3B73
:10181000910509F498C08C3B910509F497C08D3A65
:10182000910509F496C0803B910509F495C08E3A64
:10183000910509F494C08F3A910509F493C0813B56
:10184000910509F492C0823B910509F491C0833B54
:10185000910509F490C0843B910509F48FC0853B44
:10186000910509F48EC0863B910509F48DC0873B34
:10187000910509F48CC0883B910509F48BC0893B24
:10188000910509F48AC08A3B910509F489C0C0E03A
:10189000D4E488C00E941F0BEC0184C0CE019927BC
:1018A000D3FF03C0EC01D86C7DC0EC01D06C7AC0D2
:1018B000DF70D06A77C0DC2FCC27C16FD06A72C0CE
:1018C00040E2849FC0011124C1E0D0E002C0CC0FEF
:1018D000DD1F2A95E2F7C82BD92BDA6863C0D82F11
:1018E000CC27C46FD06A5EC0CF71DD27DC2FCC2738
:1018F000D06258C08F70806E90E0906A24E0D695D8
:10190000C7952A95E1F7CF709C013C2BE9014AC0AD
:10191000DD27D06647C0C0E0D0E044C0C1E8D0E4D5
:1019200041C0C3E8D0E43EC0C2EED4E43BC0C9EE3F
:10193000D4E438C0CAEED4E435C0C5EBD4E432C038
:10194000C6EBD4E42FC0C3EBD4E42CC0C4EBD4E486
:1019500029C0C7EBD4E426C0CCECD4E423C0CDEC42
:10196000D4E420C0C3E8D5E41DC0CAE8D5E41AC059
:10197000C2E9D5E417C0C4E9D5E414C0C1E2D6E495
:1019800011C0C3E2D6E40EC0C4E2D6E40BC0C5E287
:10199000D6E408C0C6E2D6E405C0C7E2D6E402C079
:1019A000CAE2D6E4CE01DF91CF9108958238910545
:1019B00049F1B0F48133910509F458C048F48932F3
:1019C000910509F44EC08A32910509F454C0089576
:1019D0008533910509F440C08933910599F0089544
:1019E000833E910529F138F4803E910591F0823EC5
:1019F0009105A1F00895863E9105F9F0873E910585
:101A000031F108952091AC0320FD3AC021FD38C08A
:101A100008958091AC0380FD35C032C08091AC0345
:101A200082FF32C08091AC0384FD30C083EE39C0A8
:101A30008091AC0382FD28C0F5CF8091AC0383FF79
:101A400027C08091AC0384FD21C087EE2AC080911D
:101A5000AC0383FD1DC0F5CF8091AC0385FD1AC09A
:101A60001BC08091AC0385FD17C014C08091AC03EE
:101A700086FD14C015C08091AC0386FD11C00EC058
:101A800080EE0FC089E30DC082EE0BC080E009C07C
:101A900086EE07C089E205C085E303C08AE201C083
:101AA00081E390E00895CF93C82F0E94252290E013
:101AB0009093AD038093AC0382FF0DC09C2F98716F
:101AC000983019F4C77FC46006C09C2F947194307D
:101AD00011F4CB7FC86083FF0DC09C2F98719831A3
:101AE00019F4C77EC46106C09C2F9471943111F41F
:101AF000CB7EC86184FDC77E8C2FCF910895089559
:101B00000F931F93CF93FB012281211102C0C1E0EB
:101B100041C08C01C0915402C11125C086319C4541
:101B2000B1F70E947F0D81E0809354020E9421232F
:101B300090935302809352021092470210924902EE
:101B40001092480210924B0210924A0210924D02DB
:101B500010924C0210924F0210924E0210925102BB
:101B60001092500217C080915202909153020E942D
:101B70002D23883C910558F690914702E92FF0E01B
:101B8000EE0FFF1FE85BFD4F118300839F5F909373
:101B90004702C0E08C2FCF911F910F910895CF93F2
:101BA000DF93813020E89207D0F0FB0122812223CD
:101BB000B1F0EC0180915502811109C08CE090E0F8
:101BC0000E94AF320E94F30D81E0809355020E9483
:101BD000FA0DCE019F770E94C20E0E94760E81E020
:101BE000DF91CF91089580935602682F8CE090E0AA
:101BF0000C94C332E0910301F09104018081809341
:101C0000610381FF03C081EE0E94E41780916103AC
:101C100085FF03C085EE0E94E4178091610380FF79
:101C200003C080EE0E94E4178091610384FF03C02B
:101C300084EE0E94E4178091610382FF03C082EE6C
:101C40000E94E4178091610386FF03C086EE0E9424
:101C5000E4178091610383FF03C083EE0E94E417C1
:101C60008091610387FF03C087EE0E94E417809193
:101C70005602823001F1A8F48823C9F0813079F549
:101C800080EE0E94D51681EE0E94D51688E10E9452
:101C9000D51688E10E94E41781EE0E94E41780EED9
:101CA0001CC0843081F08530D1F486EE01C082EE14
:101CB0000E94D51614C082EE0E94D51687E50E94B8
:101CC000D51687E50AC086EE0E94D51686EE0E94DC
:101CD000E41788E10E94D51688E10E94E4178FE39B
:101CE0009CE90197F1F700C0000008958091560229
:101CF000813049F030F0823021F0853051F486EEA9
:101D000006C082EE04C08CE20E94D5168CE20E94CE
:101D1000E4178091610381FF03C081EE0E94D51614
:101D20008091610385FF03C085EE0E94D5168091E6
:101D3000610380FF03C080EE0E94D516809161038D
:101D400084FF03C084EE0E94D5168091610382FF58
:101D500003C082EE0E94D5168091610386FF03C006
:101D600086EE0E94D5168091610383FF03C083EE47
:101D70000E94D5168091610387FF03C087EE0C9403
:101D8000D5160895EF92FF921F93CF93DF937C01B6
:101D9000CCE0D0E097010C2E02C0369527950A942E
:101DA000E2F7122F1F70812F0E94F90A0E94D516A8
:101DB000812F0E94F90A0E94E4172497CC3F8FEFED
:101DC000D80741F7DF91CF911F91FF90EF900895D1
:101DD000EF92FF920F931F93CF93DF93E901662356
:101DE00009F44BC0242F30E0EFEFF0E0E61BF109DF
:101DF000B901E69F9001E79F300DF69F300D112449
:101E0000232F8B01031B11095CE3E52EF12CB70195
:101E10000E948132FB01BC01069FC001079F900D0B
:101E2000169F900D1124B7010E948132E230F10516
:101E3000B1F040F4309779F0319711F5832F242FCA
:101E4000461B21C0E430F105A1F068F03597C1F4DC
:101E5000842F861B18C0832F262F230F14C0862F94
:101E6000830FE42F03C0E42FE61B842F432F2E2F74
:101E70000AC0842F462F430F06C0842F242F03C08F
:101E800080E020E040E0E42FF0E0E657F94F449195
:101E9000E22FF0E0E657F94F9491E82FF0E0E65793
:101EA000F94FE49149839883EA83DF91CF911F91A1
:101EB0000F91FF90EF90089588E090E00C94B73276
:101EC000AB01BC0188E090E00C94D532E2E6F3E08F
:101ED00083E08083109263038FEF8283838360911A
:101EE00062037091630380916403909165030C9485
:101EF000600F6091620360FF06C066956F7370E0CB
:101F000080E090E0089560E070E0CB01089580915A
:101F1000620380FF06C06FE070E08AE693E00C94F5
:101F2000001580E090E0FC01E659FC4F1182108220
:101F3000128204968C339105B1F7EDCF9091620334
:101F400090FF0FC020E030E0F901E659FC4F81839B
:101F5000608342832C5F3F4F2C333105A9F70C94EB
:101F6000870F0895EF92FF920F931F93CF93DF9304
:101F700000D000D0CDB7DEB70091620310916303AB
:101F80002091640330916503009366031093670307
:101F900020936803309369032091620320FF21C0DE
:101FA000042FF62EE92E182F9E012F5F3F4F0E941F
:101FB000E80E8091660310FB87F9809366031695FF
:101FC000809167038078182BE0FA17F91093670364
:101FD000F0926803009369034B8169818A810E94B2
:101FE0009E0F0F900F900F900F90DF91CF911F9148
:101FF0000F91FF90EF9008958F929F92AF92BF92B2
:10200000CF92DF92EF92FF920F931F93CF93DF93C4
:10201000EC01062F142F8091620380FF8CC0982F53
:102020009E77923021F4CE010E94B20F5AC0E82F61
:10203000E695EF739EE39E0F9F73943018F4109112
:1020400065034FC09AE39E0F9F73993070F4881F09
:102050008827881F90916303292F220FC22FC82B36
:1020600097FB992790F9D92F3CC087E28E0F8F7389
:102070008A30B8F5F0E07997E0FD02C021E001C0B8
:102080002FEFEE7FE059F94F859194916FE070E06A
:102090000E94813226036001279FD00C11244E013B
:1020A00088E9881A8EEF980A8AE6E82E83E0F82EEF
:1020B00098E6A92EBB24B394C401B5010E948132D5
:1020C0009701412F602F0E94E80E8C0C9D1C94E01C
:1020D000E90EF11C86EAE81683E0F80669F70E942B
:1020E000870F809162039C2FC0FB87F98093620366
:1020F0009695809163038078892BD0FB87F9809334
:10210000630300936403109365036091620370910D
:1021100063038091640390916503DF91CF911F91D8
:102120000F91FF90EF90DF90CF90BF90AF909F9076
:102130008F900C94600FDF91CF911F910F91FF90C2
:10214000EF90DF90CF90BF90AF909F908F900895C9
:10215000E2E6F3E02081221F2227221F3091630351
:10216000432F440F842F822B37FB992790F90C962D
:1021700068E671E00E949532438162810C94FC0F05
:1021800020916203221F2227221F30916303432FD5
:10219000440F842F822B37FB992790F98C309105BF
:1021A0001CF4845A9E4F01C00C9768E671E00E94AF
:1021B000953240916503609164030C94FC0FE2E654
:1021C000F3E08081881F8827881F90916303292F5F
:1021D000220F97FB992790F943816FEF822B0C9484
:1021E000FC0FE2E6F3E08081881F8827881F90912A
:1021F0006303292F220F97FB992790F9438160E011
:10220000822B0C94FC0F40916503842F90E0843F57
:10221000910514F4445F01C04FEF80916203881F61
:102220008827881F90916303292F220F97FB9927F6
:1022300090F960916403822B0C94FC0F409165032C
:10224000842F90E00C9714F04C5001C040E0809136
:102250006203881F8827881F90916303292F220F0C
:1022600097FB992790F960916403822B0C94FC0FE3
:102270009091620390FF42C09178811102C09260F8
:1022800007C0833210F0946403C08F73880F982BBB
:102290009093620360916203709163038091640381
:1022A000909165030E94600F80916203982F9E7742
:1022B000923019F410926C0210C0982F96959F736B
:1022C0002EE3290F2F73273120F491E090936C02B5
:1022D00004C0995D9F739A3068F3881F8827881F10
:1022E00090916303292F220F97FB992790F9409132
:1022F000650360916403822B0C94FC0F0895809118
:10230000300381608093300381E080936D020E94EE
:102310001222811104C00E94F1210E94660F0E94C6
:102320005C0F6093620370936303809364039093E4
:1023300065036E7761F40E94660F0E945C0F6093E4
:10234000620370936303809364039093650381E059
:1023500080936C028091620380FF04C086958F7326
:102360000C94381108958091620386958F738F5F66
:10237000833208F081E00C943811809162038695D5
:102380008F73815009F482E20C943811CF93DF935C
:10239000C2E6D3E088818160888360916203709196
:1023A000630380916403909165030E94600F8881AC
:1023B00086958F73DF91CF910C943811E2E6F3E0AC
:1023C00080818E7F8083609162037091630380912E
:1023D0006403909165030E94600F10926C022FEFCE
:1023E00080E792E0215080409040E1F700C000007B
:1023F0000C94870F8091620380FD0C94DE110C9485
:10240000C611CF93C82F80916A0290916B020E94EF
:102410002D23EC2FF0E0EA57F94FE491F0E08E170E
:102420009F0708F443C00E94212390936B0280937E
:102430006A026091690270E080E090E00E94823060
:1024400020E030E04FE753E40E94A52F2BED3FE062
:1024500049E450E40E94AB310E9418320E941F30C0
:102460002BE43AE34EE25FE30E94382F20EF3BEF8C
:1024700048ED52E40E94AB310E945130462F8091CA
:102480006203881F8827881F90916303292F220FDA
:1024900097FB992790F960916403822B0E94B20FF9
:1024A0008091690290E0019680936902CF9108952E
:1024B000CF93C82F80916702909168020E942D23CC
:1024C000EC2FF0E0ED57F94FE491F0E08E179F0705
:1024D000E8F00E9421239093680280936702409164
:1024E00065036091640380916502909166020E9489
:1024F000B20F8091650290916602019668E671E0E4
:102500000E9481329093660280936502CF91089574
:10251000CF92DF92FF920F931F93CF93DF93F82E0A
:1025200080916302909164020E942D23EF2DE69525
:10253000F0E0E058F94FE491F0E08E179F07E8F1E2
:102540000E94212390936402809363020AE613E0C1
:10255000C0E0D0E088E6C82EDD24D39480916102EB
:10256000909162028C0F9D1FB6010E9481329801EA
:1025700040916503609164030E94E80E68960C5FC9
:102580001F4FC83681E0D80749F70E94870F209176
:10259000610230916202F0FE0AC0C9010196BE01DB
:1025A0000E948132909362028093610206C02150A2
:1025B00031093093620220936102DF91CF911F9124
:1025C0000F91FF90DF90CF900895AF92BF92CF927E
:1025D000DF92EF92FF920F931F93CF93DF93C82F59
:1025E00080FF02C01FEF01C011E080915F02909157
:1025F00060020E942D23C695EC2FF0E0E358F94FBE
:10260000E491F0E08E179F0708F466C00E94212332
:102610009093600280935F022AE6C22E23E0D22EBE
:102620003CE6E32E33E0F32EC0E0D0E0F701319733
:102630001082F6011082F701108294E0A92EB12CCD
:1026400000E080915E02800F87FD815F082E000C04
:10265000990BC817D907E9F4809165038A9DA001F9
:102660008B9D500D11245595479555954795809113
:102670006203881F8827881F90916303592F550F85
:1026800097FB992790F9960160916403852B0E942E
:10269000E80E010FF1E0AF1AB10899F6219684E037
:1026A000C80ED11CE4E0EE0EF11CCF30D10509F0CC
:1026B000BDCF0E94870F80915E02113031F48111ED
:1026C00002C08EE007C0815005C090E00196BE01B7
:1026D0000E94953280935E02DF91CF911F910F91FE
:1026E000FF90EF90DF90CF90BF90AF9008950F9341
:1026F0001F93CF93DF93C82F80915C0290915D026E
:102700000E942D23EC2FF0E0E658F94FE491F0E021
:102710008E179F0708F464C00E94212390935D02E6
:1027200080935C0280E090E0FC01E659FC4F11824E
:102730001082128204968C339105B1F7C0E0D0E08C
:102740000FE010E0CE01B8010E949532FC018091AB
:102750005B02082E000C990BEE0FFF1FEE0FFF1F00
:10276000C817D907FCF080910201082E000C990BC4
:102770008C179D07BCF09F0126593C4F8091620346
:10278000881F8827881F90916303592F550F97FB47
:10279000992790F94091650360916403852B0E940D
:1027A000E80E05C0E659FC4F118210821282219674
:1027B000CF30D10539F60E94870F809101019091A9
:1027C0005B02980F90935B0220910201280F2093E7
:1027D0000201121614F49E301CF0819580930101C1
:1027E000DF91CF911F910F910895EF92FF920F9378
:1027F0001F93CF93DF938091590290915A020E94C8
:102800002D23883E9340D0F10E94212390935A02B9
:1028100080935902C0915702D09158022196C170FD
:10282000DD27D0935802C09357028AE6E82E83E052
:10283000F82E10E008E7812F8695FE01E80FF11DC4
:10284000CF018170992797014091650360916403DE
:10285000FC010E9FC0010F9F900D11240E94E80EF5
:102860001F5FF4E0EF0EF11C1F3029F7DF91CF91CD
:102870001F910F91FF90EF900C94870FDF91CF91F4
:102880001F910F91FF90EF90089580916C02882323
:1028900091F190916203892F86958F732EE3280F13
:1028A0002F73243018F482500C9401122AE3280F5D
:1028B0002F73233018F486500C94581227E3280FF6
:1028C0002F73263018F489500C94881221E3280FB6
:1028D0002F73263018F48F500C94E5122BE2280F3A
:1028E0002F73233018F485510C9477139E7790330F
:1028F00011F40C94F5130895882319F05198599AFE
:1029000002C0519A59985098589A95E09A95F1F7C3
:102910000000509A589895E09A95F1F700008823A6
:1029200011F0519A599885E08A95F1F700000895C1
:102930008BB18C7F8BB95098589A5198599A85E0F1
:102940008A95F1F7000008958AB18C7F8AB985E0F5
:102950008A95F1F70000519A599885E08A95F1F728
:102960000000509A589885E08A95F1F70000089584
:102970005098589A85E08A95F1F700005198599A35
:1029800085E08A95F1F700000895CF93DF93D82F63
:10299000C8E08D2F80780E947C14DD0FC150C9F7EC
:1029A00080E00E947C1485E08A95F1F7000085E0C4
:1029B0008A95F1F7000080E0DF91CF9108952BB167
:1029C000342F309523233BB1432B3FB7F894FC01C0
:1029D000680F791FE617F70789F0819198E04BB9E6
:1029E000000000C087FF2BB9880F000000C000C0A6
:1029F00000C02BB900C09A9591F7ECCF3FBF089566
:102A0000AF92BF92CF92DF92EF92FF920F931F93FC
:102A1000CF93DF938C01EB01CFB6D090BC00F8943C
:102A20008091BC008B7F8093BC000E9498140E9410
:102A3000A41484E80E94C514CC0FDD1FCC0FDD1F49
:102A400078015801AC0EBD1EEA14FB0431F0F70109
:102A500081917F010E94C514F7CF0E94B814CFBEA8
:102A6000D092BC00579A40E8BE01C801DF91CF91D7
:102A70001F910F91FF90EF90DF90CF90BF90AF909C
:102A80000C94DF1490937302809372020895E09186
:102A90007202F0917302309721F00190F081E02DE5
:102AA000099480E00895E0917202F09173023097EA
:102AB00021F00280F381E02D09940895E0917202E3
:102AC000F0917302309721F00480F581E02D099494
:102AD000089520917002309171028217930771F06E
:102AE0009093710280937002E0917202F0917302F0
:102AF000309721F00680F781E02D09940895209108
:102B00006E0230916F028217930771F090936F02FB
:102B100080936E02E0917202F0917302309721F07F
:102B20000084F185E02D0994089508950C9495157D
:102B300081E008950E9418230E9499050E94AF2306
:102B40000C947F11CF92DF92EF92FF920F931F931D
:102B5000CF93DF93CDB7DEB72B970FB6F894DEBFD8
:102B60000FBECDBF0E9405060E949815811111C0AD
:102B70008FEF89838A831B820E9421238160782FB3
:102B80009D838C8349815A816B818D810E94861639
:102B900056C085E7C82E82E0D82E00E010E0E02E77
:102BA000802F0E946E06F60141916F01F42EF826E7
:102BB00031F40F5F1F4F0E30110589F7D9CF909177
:102BC000300391FF04C08B870E9474068B8520E040
:102BD00030E04F2D50E0922FBA01022E02C07595C1
:102BE00067950A94E2F760FF24C02E83EF8221E00C
:102BF00030E0690102C0CC0CDD1C9A95E2F790E050
:102C00008C219D21892B09F420E028870E94212313
:102C10008160782F9A8789874E815F8168858A8550
:102C20000E948616F801EB58FD4F8081C826C082AD
:102C300006C02F5F3F4F2630310569F6BACF0E949C
:102C40004225109174020E9447151817A1F00E94A6
:102C50004715809374022B960FB6F894DEBF0FBE13
:102C6000CDBFDF91CF911F910F91FF90EF90DF903B
:102C7000CF900C940A0B2B960FB6F894DEBF0FBEC4
:102C8000CDBFDF91CF911F910F91FF90EF90DF901B
:102C9000CF900895DC0111962C9111978C91682F9B
:102CA00070E041E050E001C0440F8A95EAF71296C7
:102CB0008C91129730E0882329F080919302882329
:102CC000E9F006C0F901ED57FD4F90819423B1F072
:102CD00086E0829FF001839FF00D1124E60FF71F1D
:102CE000EE0FFF1FEB5EFE4F808191818D939C93D1
:102CF000F901ED57FD4F8081482B06C0F901ED57D2
:102D0000FD4F40958081482340830895CF93DF9302
:102D1000CDB7DEB72B970FB6F894DEBF0FBECDBF91
:102D2000942F4F83252F588769877A878B874A8509
:102D30005B85452B21F02F3F09F59F3FF9F4DE011C
:102D4000119686E0FD0111928A95E9F785E0FE0172
:102D5000379601900D928A95E1F749815A816B81EE
:102D60007C818D819E810E940D1E2B960FB6F8945A
:102D7000DEBF0FBECDBFDF91CF910895CE01079684
:102D80000E944A16DCCFFC01808191810E94D620EE
:102D900092959F70963041F48091930291E089273B
:102DA00080939302909392020895CF93DF931F92A2
:102DB000CDB7DEB7882309F403C1682F8238C1F488
:102DC0000E94471581FDFCC069E380910301909149
:102DD00004010E948A220E9435212FEF81EE94E0A7
:102DE000215080409040E1F700C0000069E319C025
:102DF000833811F50E94471580FDE2C063E580919C
:102E00000301909104010E948A220E9435212FEF34
:102E100081EE94E0215080409040E1F700C0000036
:102E200063E580910301909104010E9495220F9027
:102E3000DF91CF910C9435218438C1F40E9447155D
:102E400082FDBEC067E480910301909104010E945D
:102E50008A220E9435212FEF81EE94E0215080409C
:102E60009040E1F700C0000067E4DBCF8CEF860FF5
:102E7000813A70F4862F69830E946B2769818111E2
:102E80009FC080910301909104010E948A22CFCFBC
:102E900080E2860F883048F4677081E001C0880FB7
:102EA0006A95EAF70E946B21C2CF8BE5860F8330CB
:102EB00088F4653A29F0663A31F083E890E005C07D
:102EC00081E890E002C082E890E00F90DF91CF911E
:102ED0000C94691588E5860F853108F071C0683A51
:102EE00061F1693A69F16A3A71F16B3A79F16C3AD8
:102EF00081F16B3B89F16C3B91F16D3A99F1603B4B
:102F0000A1F16E3AA9F16F3AB1F1613BB9F1623BBF
:102F1000C1F1633BC9F1643BD1F1653BD9F1663B3B
:102F2000E1F1673BE9F1683BF1F1693BF9F16A3B9B
:102F300009F43FC080E090E03EC082EE90E03BC0EC
:102F400089EE90E038C08AEE90E035C085EB90E0E5
:102F500032C086EB90E02FC083EB90E02CC084EB76
:102F600090E029C087EB90E026C08CEC90E023C075
:102F70008DEC90E020C083E891E01DC08AE891E0EC
:102F80001AC082E991E017C084E991E014C081E29F
:102F900092E011C083E292E00EC084E292E00BC0A6
:102FA00085E292E008C086E292E005C087E292E006
:102FB00002C08AE292E00F90DF91CF910C947F15CE
:102FC0000F90DF91CF910895882309F45BC0682F9B
:102FD000823879F40E94471581FF54C069E38091DB
:102FE0000301909104010E948A220E94352169E325
:102FF00010C08338B1F40E94471580FF43C063E5D9
:1030000080910301909104010E948A220E9435213F
:1030100063E580910301909104010E9495220C9434
:103020003521843879F40E94471582FF2BC067E46C
:1030300080910301909104010E948A220E9435210F
:1030400067E4E7CF8CEF860F813A18F380E2860FB2
:10305000883048F4677081E001C0880F6A95EAF70C
:103060000E947121DCCF8BE5860F833020F480E055
:1030700090E00C946915685A653120F480E090E086
:103080000C947F150895882321F00E946B210C94E5
:1030900035210895882321F00E9471210C94352157
:1030A00008958F929F92AF92BF92CF92DF92EF924C
:1030B000FF920F931F93CF93DF931F92CDB7DEB78D
:1030C0007C01C72EFC01058102950F70128111232E
:1030D00021F069830E948821698169830E942E21E1
:1030E0006981882381F0112371F080E2860F883096
:1030F00050F082E00E9417210E942E2191E0D82EEC
:10310000D926698101C0D12CAC2CA2948FE0A822D1
:10311000B12CF501E258FF4F0C94A9328C2D807F21
:103120000C2D0F70882311F00295007F1123C1F040
:10313000002309F4D2C180E2860F883010F06111BB
:1031400005C0802F69830E946B2104C0802F698392
:103150000E947B21698169830E9435216981BDC1FB
:10316000862F69830E94E4176981002309F431C224
:1031700080E2860F883010F0611104C0802F0E9419
:10318000712103C0802F0E9481210E94352121C21C
:103190009C2D907F8C2D8F70903211F08295807FC6
:1031A000662319F06130B1F01EC0112349F00023ED
:1031B00009F44BC1013009F048C10E949B2109C2AA
:1031C000002319F0013009F404C289830E949E2172
:1031D000898141C1112321F0023008F0FAC135C1C3
:1031E0000111F7C138C1112321F0002309F42DC1C9
:1031F00074C1002309F42FC181C18C2D8695869559
:10320000837090E0009719F0019761F0E2C11123FB
:1032100021F0862F9C2D937002C080E090E00E94E8
:103220006915E7C1112321F0862F9C2D937002C0F0
:1032300080E090E00E947F15DCC11123F9F0653F2A
:1032400051F0663F71F0643FA9F48091A60390911C
:10325000A70381600BC08091A6039091A7038260B1
:1032600005C08091A6039091A70384609093A70363
:103270008093A603862F0E944A241EC0653F51F00A
:10328000663F71F0643FA9F48091A6039091A70373
:103290008E7F0BC08091A6039091A7038D7F05C000
:1032A0008091A6039091A7038B7F9093A7038093AF
:1032B000A603862F0E94B2240E9437259AC18C2D26
:1032C000837009F052C0111190C1862F82958695A6
:1032D0008770880F880F962F9F70892E912CA12CB4
:1032E000B12C082E04C0880C991CAA1CBB1C0A9483
:1032F000D2F764FF14C00FE010E020E030E0B90125
:10330000A80104C0440F551F661F771F8A95D2F786
:10331000CB01BA01609570958095909503C060E0EF
:1033200070E0CB012C2D26952695237030E02230BD
:10333000310569F02330310589F0682979298A2916
:103340009B292130310571F00E94501F4EC1682920
:1033500079298A299B290E94621F47C10E94501F18
:10336000C501B4010E943E1F40C1112319F08C2DEC
:10337000817001C08695882309F437C1862F829514
:1033800086958770880F880F962F9F70892E912CB5
:10339000A12CB12C082E04C0880C991CAA1CBB1CA3
:1033A0000A94D2F764FF14C00FE010E020E030E090
:1033B000B901A80104C0440F551F661F771F8A95E5
:1033C000D2F7CB01BA01609570958095909503C0B6
:1033D00060E070E0CB012C2D269526952370422FBE
:1033E00050E04230510569F04330510589F06829B9
:1033F00079298A299B294130510571F00E941520B5
:10340000F4C0682979298A299B290E942720EDC0C8
:103410000E941520C501B4010E940320E6C0862F3A
:1034200090E0FC01E05EF109E531F10508F051C0E2
:10343000E257FF4F0C94A932062F0F708C2D8F711D
:10344000112331F00E949C1F802F0E944318C1C09D
:103450000E94BD1F802F0E944A18BBC0112339F063
:103460000111B7C08C2D8F710E94E21FB2C00230D3
:1034700008F0AFC0F7CF112339F08C2D8F710E9467
:103480009C1FA7C01123C9F38C2D8F710E94BD1FF3
:10349000A0C0112329F08C2D8F710E94871F99C025
:1034A0000E94821F96C0112351F01C2D1F71812F85
:1034B0000E949C1F63E0812F0E940E218AC081E040
:1034C0000E941721023008F484C082E00E94172174
:1034D00080C0112331F0002381F2862F0E94D5167F
:1034E00078C0002389F2693349F45FEF77EE83E017
:1034F000515070408040E1F700C00000862F0E94CC
:10350000E41767C04C2D4F70C7010E9432070E941C
:10351000B11E6FC0623FB1F028F4603F49F0613FD7
:10352000F9F028C0643FB9F058F0653F71F022C04F
:10353000112309F449C09091930281E0892708C0C2
:1035400081E01827109393023FC011113DC081E024
:103550008093930239C0111137C01092930234C086
:10356000112329F080919202882329F32BC0002394
:1035700011F32AC0809192020023D1F0882341F0F8
:103580009091930281E08927809393021092920296
:10359000862F6983112319F00E94D51607C00E9457
:1035A000E41786E0F70111928A95E9F769810CC06A
:1035B000882351F0111108C09091930281E089276E
:1035C00080939302109292024C2D4F70C7010E947B
:1035D0000C0BF8E0AF16B10441F05CF04AE0A41A1D
:1035E000B10852E0A516B10420F40E9447150E94CC
:1035F0000A0BDD20F1F00E940A2180FD1AC0F701BC
:1036000012820E9404210E949C1FC7010E94271B56
:103610000E9404210F90DF91CF911F910F91FF9095
:10362000EF90DF90CF90BF90AF909F908F900C94D1
:10363000BD1F0F90DF91CF911F910F91FF90EF90E1
:10364000DF90CF90BF90AF909F908F9008950F9391
:103650001F93CF93DF93EC01888199812B813C816B
:10366000232BB9F09F3F11F48F3F99F0CE010E94B8
:10367000DF07882371F0688179818A810E94E120C7
:103680008C010E9439200E943B1FB801CE010E948C
:103690005118DF91CF911F910F9108950E948821B9
:1036A0000E94982180910301909104010E94A02220
:1036B0000E9435210E94D0250E94372580E090E0AD
:1036C0000E94691580E090E00C947F150E9478219B
:1036D0000C944E1B0E94D620E92FE295EF70F0E08B
:1036E0003297EE30F105B0F4ED55FF4F0C94A9324E
:1036F000803F91F018F4803E68F40EC0843F51F48E
:103700000BC0803E48F0813F29F406C093FB882718
:1037100080F9089580E0089581E00895CF93DF93C4
:1037200000D000D01F92CDB7DEB70F900F900F9052
:103730000F900F90DF91CF910895CF93DF9300D03A
:1037400000D000D0CDB7DEB726960FB6F894DEBF16
:103750000FBECDBFDF91CF9108951F93CF93DF931D
:10376000C091940216E080919502C81799F0D0E0BC
:103770001C9FF0011D9FF00D1124EA56FD4F408162
:10378000518162817381848195810E949D1B219664
:10379000C770E9CFDF91CF911F9108954091C60284
:1037A0005091C7026091C8027091C9028091CA020B
:1037B0009091CB020C949D1B8091CB0282958F70CF
:1037C00009F054C08091C802882309F44FC0809149
:1037D0009402A09195026091C6027091C702409137
:1037E000C9025091CA02B6E08A1709F43FC090E0BE
:1037F00041155105C1F17F3F11F46F3FA1F1B89F11
:10380000F001B99FF00D1124EA56FD4F218172138A
:103810002AC02081621327C02281211124C0238164
:1038200034812417350710F421503109241B350B3E
:10383000283C3105C0F42091CB022F7020612093E9
:10384000CB0226E0289FF001299FF00D1124E556B8
:10385000FD4F80818F708061808386EC92E00E94B2
:10386000271B0C94AD1B01968770BECF0895CF9295
:10387000DF92EF92FF920F931F93CF93DF93CDB719
:10388000DEB762970FB6F894DEBF0FBECDBF8C01D6
:1038900085E0F801DE011D9601900D928A95E1F711
:1038A000D8014C9111965C91119712966C911297D8
:1038B0001396CD90DC9014973091C6027091C70298
:1038C0008091C9029091CA02009709F46BC17F3FB1
:1038D00019F43F3F09F466C1E090C802EE2009F4F4
:1038E000C0C02091CB02C816D90628F0F601E81B0B
:1038F000F90BCF0104C0809590958C0D9D1DFF2480
:10390000F394883C910578F0F12C207F09F0C6C033
:103910007C2DD98AC88A89890E948E1B86EC92E008
:103920000E94271BB1C0822F807F09F046C075130B
:1039300014C0341312C0611110C02F702061209385
:10394000CB020E94CE1B86EC92E00E94271B809146
:10395000CB02D80115968C932EC0CD2819F15F3F6C
:1039600011F44F3FF9F0F62E61111CC080919402C2
:103970002091950236E0821709F45AC090E0389FF2
:10398000F001399FF00D1124EA56FD4F7181571354
:1039900006C07081471303C07281711103C0019684
:1039A0008770E9CFF62E662309F427C18091CB02F8
:1039B00081608093CB02F12C20C1751308C03413B1
:1039C00006C0611104C08091CB02D801C3C04D87ED
:1039D0005E878D859E856A8B0E946A1B6A89882313
:1039E000E1F16623D1F12091CB02822F82958F7075
:1039F00090E0029774F08091C6029091C702988778
:103A00008F831986DB86CA862C87CE0107960E9493
:103A1000271B86E0F801A6ECB2E001900D928A9592
:103A2000E1F70E94DC1B0E94CE1BFF24F394E5C04B
:103A30004D875E878D859E850E94D620292F2295F1
:103A40002F7030E0223031050CF0CBC09F7009F0B0
:103A5000C5C0805E883008F4D0C0C8010E94271B12
:103A6000E4CFC816D90608F453C0F601E81BF90BD9
:103A7000CF01883C910508F450C0F12C7C2DD98AE7
:103A8000C88A89890E948E1BE6ECF2E086E0DF019D
:103A90001D928A95E9F70E94CE1BAFC0751314C022
:103AA000341312C0611110C08091CB02F8018583DC
:103AB000C8010E94271B86E0E6ECF2E0DF011D92C0
:103AC0008A95E9F7FE2C99C04D875E878D859E8586
:103AD0006A8B0E946A1B6A89882309F4BECF662319
:103AE00009F4BBCF2091CB02822F82958F7090E09A
:103AF00002970CF48ECF8091C6029091C7029A83F0
:103B000089831B82DD82CC822E83CE0101967FCFFA
:103B1000809590958C0D9D1DACCFF62E662309F4F3
:103B20009CCF75132EC034132CC02091CB0220FDE6
:103B30001FC0822F82958F70D9F0D80115962C93D3
:103B400015978F3049F08F5F982F9295907F822F35
:103B50008F70892B15968C93C8010E94271B86E0D5
:103B6000F801A6ECB2E001900D928A95E1F793CFAF
:103B700086E0F801A6ECB2E001900D928A95E1F79B
:103B80003CC04D875E878D859E850E946A1B811192
:103B900040CF8091CB0281608093CB02C8010E940C
:103BA000271B2BC0662309F458CF4D875E878D8570
:103BB0009E850E946A1BF82E882309F44ECF86E06A
:103BC000F801A6ECB2E001900D928A95E1F786EC3F
:103BD00092E00E94C3160E94DC1B5DCF811139CF99
:103BE0000CC0243031050CF038CF9F7009F431CF70
:103BF000F8019581907F09F02CCF8F2D62960FB63A
:103C0000F894DEBF0FBECDBFDF91CF911F910F9112
:103C1000FF90EF90DF90CF9008951F93CF93DF93A5
:103C2000CDB7DEB72C970FB6F894DEBF0FBECDBF71
:103C30004F83588769877A878B879C87CE01079641
:103C40000E94371C882369F08F8198852A853B85DF
:103C5000232BF1F19F3F09F063C08F3F09F060C053
:103C600037C086E0FE013796DE01119601900D9275
:103C70008A95E1F76F817885EA85FB85309741F178
:103C80007F3F11F46F3F21F12091950230E0C9018F
:103C90000196877099274091940250E08417950708
:103CA00009F447C069837A83FD83EC8396E0929F91
:103CB000D001939FB00D1124AA56BD4FFE0131963D
:103CC00001900D929A95E1F7809395020E94AD1BA9
:103CD00016E080919402909195028917C1F1189F86
:103CE000C00111248A569D4F0E94371C882379F108
:103CF000E09194021E9FF0011124EA56FD4F40818D
:103D0000518162817381848195810E949D1B809184
:103D1000940290E001968770992780939402D9CFFE
:103D20004F81588569857A858B859C850E949D1B6E
:103D3000CFCF0E94661B1092950210929402E6EC7F
:103D4000F2E086E0DF011D928A95E9F7C1CF2C965B
:103D50000FB6F894DEBF0FBECDBFDF91CF911F919C
:103D60000895EF92FF920F931F93CF93DF938C01EF
:103D7000892B09F46CC0F12CEE24E394E801219620
:103D8000F8018491843740F4843008F051C08130C8
:103D900081F0823019F15BC0853709F444C0A8F185
:103DA0009CE7980F903708F052C08F770E94E41775
:103DB00041C00E5F1F4FFE01C49180E28C0F88301E
:103DC00048F4C7708E2D01C0880FCA95EAF70E948B
:103DD0008B2114C08C2F0E94D5162DC00E5F1F4F53
:103DE000FE01C49180E28C0F883058F4C7708E2D8C
:103DF00001C0880FCA95EAF70E9491210E943521DF
:103E00001AC08C2F0E94E41716C00E5F1F4FFE01D0
:103E1000C491CC2381F08FE99FE00197F1F700C0B6
:103E20000000C150F6CF0E5F1F4FFE01F49003C09B
:103E30000E94D5168E018F2D882309F49FCFEFE9BC
:103E4000FFE03197F1F700C000008150F5CFDF911E
:103E5000CF911F910F91FF90EF90089508950E94C8
:103E60002E1F6093070370930803809309039093B8
:103E70000A030C944E1B08950C942F1F0F931F934D
:103E800000910703109108032091090330910A0360
:103E9000602B712B822B932B1F910F910C942F1F52
:103EA0000F931F93009107031091080320910903BA
:103EB00030910A0360237123822393231F910F9172
:103EC0000C942F1F0F931F93009107031091080369
:103ED0002091090330910A036027712782279327D5
:103EE0001F910F910C942F1F0C949C070E94741F1C
:103EF0006093030370930403809305039093060378
:103F00000C944E1B60E070E0CB010C94761F0F9375
:103F10001F9341E050E060E070E08A019B0104C023
:103F2000000F111F221F331F8A95D2F7C901B80154
:103F30001F910F910C94761F0F931F9341E050E057
:103F400060E070E004C0440F551F661F771F8A951C
:103F5000D2F78091030390910403A0910503B091DF
:103F600006038A019B01082B192B2A2B3B2BC90125
:103F7000B8011F910F910C94761F0F931F9341E08E
:103F800050E060E070E004C0440F551F661F771FCB
:103F90008A95D2F74095509560957095809103036E
:103FA00090910403A0910503B09106038A019B013F
:103FB000082319232A233B23C901B8011F910F911C
:103FC0000C94761F0F931F9341E050E060E070E087
:103FD00004C0440F551F661F771F8A95D2F7809142
:103FE000030390910403A0910503B09106038A0195
:103FF0009B01082719272A273B27C901B8011F91D0
:104000000F910C94761F0F931F930091030310914F
:1040100004032091050330910603602B712B822B42
:10402000932B1F910F910C94761F0F931F93009168
:1040300003031091040320910503309106036023CC
:104040007123822393231F910F910C94761F0F935A
:104050001F930091030310910403209105033091F5
:10406000060360277127822793271F910F910C94D5
:10407000761F0895292F220F920F990F890FA82FCD
:10408000A695A695A695877051E001C0550F8A9513
:10409000EAF785E0A89FD001112420E030E070E02D
:1040A000F901EA0FFB1FE453FD4F4081CB01022EC3
:1040B00002C0969587950A94E2F7817099278195B9
:1040C00084278523842780832F5F3F4F2530310548
:1040D00039F70895292F220F920F990F890F682F12
:1040E000669566956695982F977085E0689FB001F4
:1040F000112440E050E080E0FA01E60FF71FE4539E
:10410000FD4F208130E0092E02C0369527950A9494
:10411000E2F721703327042E01C0220F0A94EAF738
:10412000822B4F5F5F4F4530510531F70895CF9295
:10413000DF92EF92FF920F931F93CF93DF938C0147
:10414000C0900703D0900803E0900903F0900A03A1
:104150008091030390910403A0910503B09106039D
:10416000C82AD92AEA2AFB2ACFE1D0E0D701C60122
:104170000C2E04C0B695A795979587950A94D2F70B
:1041800080FF06C0B8018C2F0E94270B019721F4F5
:10419000219760F780E001C08C2FDF91CF911F91B4
:1041A0000F91FF90EF90DF90CF900895CF93DF9322
:1041B000EC010E949720BE010E94270BDF91CF9156
:1041C00008951F93CF93DF93EB0190919102992370
:1041D00021F0CB010E94D62013C0882349F0CB01E7
:1041E0000E949720182F682FCE010E943A2004C009
:1041F000CB010E946A20182FBE01812F0E94270B3D
:10420000DF91CF911F91089580910B03859585953E
:104210008595089580910B038770089598E0899F94
:1042200090011124262B20930B030C949C1F2091AA
:104230000B038095822380930B03982F977069F46A
:1042400030E0482F082E000C550B2417350729F0B5
:104250008595859585950C94BD1F089590910B03C8
:10426000977081E009F480E00895E0910301F091F6
:10427000040180912F038083E0910301F0910401F8
:10428000908180912E03892B8083E0910301F0912E
:104290000401908180912D03892B808380910C03F0
:1042A000882381F0E0910301F09104019081892B32
:1042B000808380910301909104010E942E2281113C
:1042C00010920C0380910301909104010C945315FA
:1042D00080912F03089590912F03892B80932F03B2
:1042E0000895809590912F03892380932F0308953B
:1042F00010922F03089590912E03892B80932E0303
:104300000895809590912E03892380932E0308951C
:1043100010922E03089590912D03892B80932D03E5
:104320000895809590912D03892380932D030895FE
:1043300010922D03089580930C03089510920C039E
:104340000895CF92DF92EF92FF926C01EE24FF244A
:10435000C114D104E104F10421F0C701B60120E148
:1043600001C020E0C72ED82EE92EFF24C114D104AD
:10437000E104F10419F0285FC701B6016B017C016B
:1043800054E0F694E794D794C7945A95D1F7C114A2
:10439000D104E104F10419F02C5FC701B6016B01EF
:1043A0007C0142E0F694E794D794C7944A95D1F7FC
:1043B000C114D104E104F10419F02E5FC701B60164
:1043C000DC01CB01B695A79597958795892B8A2B0C
:1043D0008B2B09F02F5F822FFF90EF90DF90CF9013
:1043E00008956DEE7EEF80E090E00E94E13260E0A3
:1043F00082E090E00E94C33260E083E090E00E949F
:10440000C33260E084E090E00E94C33260E085E067
:1044100090E00E94C33240E050E0BA0188E090E0B2
:104420000C94D53280E090E00E94BD3221E08D3EB8
:104430009E4F09F020E0822F089582E090E00C94D6
:10444000AF3283E090E00C94AF3284E090E00C94C3
:10445000AF32682F84E090E00C94C332FC013196B7
:104460009C01205E3F4F80E0919191118F5FE21798
:10447000F307D1F708959C01FC0132969FEF80E08D
:104480004191461789F09F3F19F4411101C0982FBF
:104490008F5F8E31A9F79F3F39F0F901E90FF11DC8
:1044A00097FDFA95628308950895FC0132968096EF
:1044B0002081261301C010823196E817F907C1F751
:1044C0000895262F2695269526952F3168F4FC0110
:1044D000E20FF11D677021E030E001C0220F6A9504
:1044E000EAF78181282B21830895262F269526958A
:1044F00026952F3170F4FC01E20FF11D677021E069
:1045000030E001C0220F6A95EAF7209581812823C7
:104510002183089520911401222329F02091AC03D6
:1045200027FD0C9461220C943B222091140122233C
:1045300029F02091AC0327FD0C9475220C94552290
:10454000FC01319680961192E817F907E1F708957A
:104550008091B203843039F11092310320E488E174
:1045600090E00FB6F894A895809360000FBE20935A
:10457000600080E00E940A0B83B7817F846083BF64
:1045800083B7816083BF7894889583B78E7F83BF1C
:104590000FB6F894A89580916000886180936000C0
:1045A000109260000FBE08950895CF930E94B80541
:1045B0000E9405060E94D422C0E08C2F0E946E0645
:1045C000811104C0CF5FCE30C1F701C081E0CF912F
:1045D00008950E94661B0E9447150C940A0B1F92B7
:1045E0000F920FB60F9211248F939F93AF93BF93A7
:1045F00080913103811113C08091A8039091A90388
:10460000A091AA03B091AB034196A11DB11D809367
:10461000A8039093A903A093AA03B093AB03BF91FF
:10462000AF919F918F910F900FBE0F901F90189593
:1046300082E084BD93E095BD9AEF97BD80936E00B4
:1046400008952FB7F8948091A8039091A903A091A1
:10465000AA03B091AB032FBF0895CF92DF92EF92E0
:10466000FF920F931F932FB7F8944091A803509196
:10467000A9036091AA037091AB032FBF6A017B016C
:10468000EE24FF248C0120E030E0C016D106E206C3
:10469000F30610F4415051099A01281B390BC90146
:1046A0001F910F91FF90EF90DF90CF900895789435
:1046B0001F920F920FB60F9211248F939F93AF9377
:1046C000BF938091A8039091A903A091AA03B091F0
:1046D000AB030196A11DB11D8093A8039093A9037C
:1046E000A093AA03B093AB03BF91AF919F918F9119
:1046F0000F900FBE0F901F901895F89481E0809353
:10470000E00080E28093D800E9ECF0E010828FE1D5
:104710009EE40197F1F700C000001DBA10926800F6
:104720001CBC10BE1FBA10927A0010926E0010923C
:104730006F0010927100109272001082ECEBF0E0AA
:10474000108214B817B81AB81DB810BA108215B86C
:1047500018B81BB81EB811BA0C94003F08950E94F7
:104760001222811102C00E94F1210E941D22809319
:1047700030030E94252290E09093AD038093AC0318
:104780000E942122682F70E080E090E00C943C1F92
:104790008091350380FF0BC06091080185E0689F20
:1047A000B001112475956795759567952BC081FFAC
:1047B00009C06091080185E0689FB00111247595DA
:1047C000679520C082FF07C06091080185E0689F5F
:1047D000B001112417C0909136039923D1F0609154
:1047E0000701961788F72091080185E0289F90011E
:1047F0001124929FA001939F500D112470E0CA01D3
:104800000E9495326038710540F46115710539F0E8
:1048100002C065E070E0862F08958FE7089581E07B
:1048200008958091350380FF08C06091060170E013
:10483000759567957595679521C081FF06C0609154
:10484000060170E07595679519C082FF04C06091FC
:10485000060170E010C0909136039923C1F0609179
:1048600005019617A0F780910601899FC0011124C8
:1048700070E00E9495326038710528F46115710569
:1048800021F0862F08958FE7089581E0089561E073
:1048900070E0F4CF803F21F40E94C823819504C0CA
:1048A000813F29F40E94C823809339030895823FF1
:1048B00021F40E94C823819504C0833F29F40E94FB
:1048C000C823809338030895893F19F40E94112466
:1048D00005C08A3F31F40E941124819580933A03E8
:1048E00008958B3F21F40E941124819504C08C3FD0
:1048F00029F40E94112480933B030895843F21F4FE
:1049000080913703816017C0853F21F48091370380
:10491000826011C0863F21F48091370384600BC010
:10492000873F21F480913703886005C0883F31F4C8
:104930008091370380618093370308958D3F21F480
:104940008091350381600BC08E3F21F48091350347
:10495000826005C08F3F29F4809135038460809385
:1049600035030895803F39F48091390387FF6CC087
:104970001092390369C0813F29F4809139031816D8
:10498000BCF362C090913803823F29F497FF5CC06A
:104990001092380359C0833F19F41916CCF354C050
:1049A000893F41F480913A0318160CF04DC01092E3
:1049B0003A034AC08A3F29F480913A0387FF44C0F2
:1049C000F6CF8B3F39F480913B0387FF3DC01092B7
:1049D0003B033AC08C3F29F480913B031816BCF38B
:1049E00033C0843F21F4809137038E7F17C0853F09
:1049F00021F4809137038D7F11C0863F21F480918F
:104A000037038B7F0BC0873F21F480913703877F6B
:104A100005C0883F31F4809137038F7E8093370340
:104A200013C08D3F21F4809135038E7F0BC08E3FE4
:104A300021F4809135038D7F05C08F3F29F480914B
:104A400035038B7F809335038091380381110EC02D
:104A50008091390381110AC080913A03811106C007
:104A600080913B03811102C010923603089587E3C1
:104A700093E00E945E150E9421239093330380935C
:104A8000320308951F93CF93DF9380913203909167
:104A900033030E942D23AC0190913603992321F01A
:104AA0002091090130E006C0209134038AE0289F5C
:104AB000900111244217530708F46EC08091380307
:104AC000C0913903D0913A0310913B03811107C083
:104AD000C1115EC0D1115CC011115AC05DC09F3FB1
:104AE00019F09F5F90933603181624F40E94C82390
:104AF000809338038091380387FF05C00E94C82344
:104B00008195809338031C1624F40E94C823809357
:104B100039038091390387FF05C00E94C82381951E
:104B20008093390340913803442379F0309139035D
:104B3000332359F025EB4203A0011124509338038D
:104B40003203C0011124909339031D1624F40E94EE
:104B5000112480933A0380913A0387FF05C00E9495
:104B60001124819580933A03111624F40E94112494
:104B700080933B0380913B0387FF05C00E94112473
:104B8000819580933B03DF91CF911F910C94372542
:104B90009F3F09F0A6CFAECFDF91CF911F9108952F
:104BA000E7E3F3E085E0DF011D928A95E9F71092D3
:104BB0003603109235030895833081F128F4813053
:104BC00059F08230D1F00895853009F449C0B8F128
:104BD000863009F456C0089580913403262F30E0C2
:104BE000280F311D2F3F310524F4680F60933403E3
:104BF00008958FEF80933403089580910901262F43
:104C000030E0280F311D2F3F310524F4680F6093E9
:104C1000090108958FEF809309010895809108019B
:104C2000262F30E0280F311D2F3F310524F4680F67
:104C30006093080108958FEF809308010895809193
:104C40000701262F30E0280F311D2F3F310524F4B6
:104C5000680F6093070108958FEF8093070108950F
:104C600080910601262F30E0280F311D2F3F31059E
:104C700024F4680F6093060108958FEF8093060176
:104C8000089580910501262F30E0280F311D2F3F18
:104C9000310524F4680F6093050108958FEF809328
:104CA00005010895833011F128F4813049F08230F4
:104CB00091F00895853081F120F18630C1F1089599
:104CC00080913403681720F4861B80933403089581
:104CD00010923403089580910901681720F4861B0F
:104CE00080930901089510920901089580910801A7
:104CF000681720F4861B809308010895109208011C
:104D0000089580910701681720F4861B809307019E
:104D1000089510920701089580910601681720F404
:104D2000861B8093060108951092060108958091D4
:104D30000501681720F4861B8093050108951092E1
:104D4000050108950F931F93873208F04DC08E31EF
:104D500008F093C0803109F47DC008F5873009F46C
:104D60006BC068F4863009F0A3C080913003817F66
:104D70008E7F8093300381E080933D039AC08B3017
:104D800009F48FC08E3009F093C08091300382FB0C
:104D9000222720F991E0922790FB82F964C08631A6
:104DA00009F47FC088F4813109F082C00E94661B3B
:104DB0008091AC0387FB222720F991E0922790FB9A
:104DC00087F98093AC036DC0893109F46AC08B31D7
:104DD00009F06EC08091300381FB222720F991E019
:104DE000922790FB81F93FC0883309F45AC050F4F0
:104DF000893209F458C0853309F455C0873209F463
:104E000052C056C0833409F44EC028F48A3308F4E3
:104E10004FC0895333C0883409F04AC00E94661BD2
:104E20000FEF13ED20E3015010402040E1F700C0E8
:104E300000000E947D2335C080913003982F90950B
:104E4000917090FB80F98093300391112AC0897F83
:104E5000877F10C08091300383FB222720F991E0E7
:104E6000922790FB83F9809330039923D1F08091AE
:104E7000300381608093300314C08D5141E050E0D5
:104E800060E070E08A019B0104C0000F111F221F27
:104E9000331F8A95D2F7C901B8010E943C1F0E94B6
:104EA000661B81E006C061E070E080E090E0F5CF35
:104EB00080E01F910F91089580E0089580E00895AB
:104EC0008E518A3030F4E82FF0E0E354FE4F8081B9
:104ED000089580E00895CF93C82F80913D038130DD
:104EE00079F018F08230E9F185C0E0910301F0918A
:104EF00004018081813169F0823209F07DC009C0EE
:104F0000E0910301F09104018081813111F082323E
:104F100061F48C2F0E945C27811104C08C2F0E94A9
:104F2000A2261DC081E090E01AC08C2F0E945E274F
:104F3000811114C0C43179F048F4CB3079F0C0311C
:104F400009F05EC082E080933D0308C0C93219F0C9
:104F5000C83321F055C010923D0352C081E08170EA
:104F600051C0C93279F108F5C43161F1A0F4C730FC
:104F700009F044C01092340384E180930901C09386
:104F800008018CE38093070188E08093060188E2A2
:104F90008093050133C082EE8C0F863078F58C2F1C
:104FA0000E94602780933C0329C0CE34E9F020F4AE
:104FB000CB3421F56AE013C0C13579F0C235F1F484
:104FC00061E00DC080913C03882319F010923C03EE
:104FD00015C081E080933D0315C061E006C080915B
:104FE0003C030E94DC250AC06AE080913C030E94D9
:104FF000522604C010923D0380E004C081E002C04C
:1050000080E0ADCFCF91089580915E0308950F9316
:105010001F93CF93DF9300D01F92CDB7DEB78C01E3
:105020000E947F2A823011F0843019F593E0998331
:105030001B830A839093E9008FEF9091E8008150E1
:1050400095FD06C095ED9A95F1F700008111F5CF19
:105050008091E80085FF0DC040E050E063E070E023
:10506000CE0101960E949C2A8091E8008E77809361
:10507000E8000F900F900F90DF91CF911F910F914B
:105080000895CF93DF9300D01F92CDB7DEB7209164
:10509000B203243031F522E02983805891099B83A3
:1050A0008A8383E08093E9008FEF9091E80081503C
:1050B00095FD06C095ED9A95F1F700008111F5CFA9
:1050C0008091E80085FF0DC040E050E063E070E0B3
:1050D000CE0101960E949C2A8091E8008E778093F1
:1050E000E8000F900F900F90DF91CF910895CF932C
:1050F000DF93EC010E947F2A823011F08430F9F4B2
:1051000082E08093E9009FEF8091E800915085FD57
:1051100006C085ED8A95F1F700009111F5CF8091D9
:10512000E80085FF0CC040E050E065E070E0CE0193
:105130000E949C2A8091E8008E778093E800DF919E
:10514000CF910895CF93DF93EC010E947F2A8230A4
:1051500019F0843009F047C0809114018823E1F0F0
:105160008091AC0387FF18C084E08093E9008FEF43
:105170009091E800815095FD06C095E19A95F1F770
:1051800000008111F5CF8091E80085FF2CC040E040
:1051900050E060E270E017C081E08093E9008FEF9B
:1051A0009091E800815095FD06C095ED9A95F1F734
:1051B00000008111F5CF8091E80085FF14C040E028
:1051C00050E068E070E0CE010E949C2A8091E800E7
:1051D0008E778093E80080E2FE01AEE3B3E00190B9
:1051E0000D928A95E1F7DF91CF9108958091B103F7
:1051F000811109C00E94312C0E948E2C8091E20006
:1052000084608093E20008951092B1030895089598
:1052100008950C94E92242E061EC81E00E94AB2BFE
:1052200042E061EC82E00E94AB2B42E061EC83E063
:105230000E94AB2B42E261EC84E00C94AB2B80919A
:10524000B403833009F455C030F4813071F08230FA
:1052500009F48EC008958A3009F47AC08B3009F4BD
:1052600060C0893009F09CC020C08091B303813AAE
:1052700009F096C08091E800877F8093E8008091D4
:10528000B7039091B803892B21F460E28EE393E099
:1052900003C060E080E090E070E00E94E72A809127
:1052A000E8008B778093E80008958091B303813202
:1052B00009F076C08091B7039091B803009719F078
:1052C000039709F06DC08091E800877F8093E80024
:1052D0008091E80082FD05C08091B2038111F8CF72
:1052E0005FC08091F10080935E038091E8008B772E
:1052F00053C08091B303813A09F052C08091B70343
:105300009091B803892B09F04BC08091E800877F0A
:105310008093E8008091E80080FFFCCF8091140129
:1053200036C08091B3038132D9F58091B703909153
:10533000B803892BA9F58091E800877F8093E80066
:105340000E94E02B8091B503809314010C94661B9E
:105350008091B303813221F58091E800877F8093AB
:10536000E8000E94E02B8091B60380935F030895CC
:105370008091B303813AA1F48091E800877F809304
:10538000E8008091E80080FFFCCF80915F0380936C
:10539000F1008091E8008E778093E8000C94E02B78
:1053A000089584B7877F84BF0FB6F894A89580913D
:1053B0006000886180936000109260000FBE80E8FA
:1053C00080936100109261000E9496150E94312C1A
:1053D0000E948E2C8091E20084608093E200789499
:1053E0000E941D2F0E949A158AE091E00E944215AA
:1053F0008091B203853069F40E94A8228091B003A5
:105400008823B1F30E94D522882391F30E94862A33
:10541000EFCF0E94A2150E944514EACF0C94102AE7
:10542000292F332723303105C9F064F421303105A9
:1054300081F02230310509F049C08DE690E024EC7E
:1054400037E048C02132310521F12232310571F1B6
:105450003DC082E190E021E338E03CC099278130F3
:10546000910571F02CF4892B89F5E0ECF7E00DC083
:105470008230910541F0039749F5EAE8F7E005C06D
:10548000E8EAF7E002C0E0E9F7E0849190E09F01EC
:1054900021C064307105D0F4660F771FFB01ED5217
:1054A000FE4F2081318189E090E014C064307105A5
:1054B00068F4FB01EE0FFF1FE553FE4F20813181A1
:1054C000FB01E953FE4F808190E004C080E090E052
:1054D00020E030E0FA013183208308950895CF93CE
:1054E000C82F0E946E2AC0936003CF9108958091C7
:1054F000B203843011F081E0089582E00895809134
:105500006003811102C00C94772A089580E189BD5F
:1055100082E189BD09B400FEFDCF8091D8008F7D66
:105520008093D8008091E00082608093E0008091B9
:10553000E00081FDFCCF0895CF92DF92EF92FF92C1
:105540000F931F93CF93DF93EC018B016A010E94AD
:10555000FF2B811133C0C114D10439F0F6018081D1
:105560009181081B190BC80FD91FE12CF12C0115D3
:10557000110519F18091E80085FD16C08091E800C1
:105580008E778093E800C114D10449F0F601808140
:105590009181E80EF91EF182E08285E00FC00E9441
:1055A000FF2B882321F30AC089918093F1000150D9
:1055B0001109FFEFEF1AFF0ADACF80E0DF91CF91F8
:1055C0001F910F91FF90EF90DF90CF900895209161
:1055D000B9033091BA032617370748F061157105F2
:1055E00039F42091E8002E772093E80001C0B9013A
:1055F00040E061157105A9F12091B203222309F45D
:1056000043C0253009F442C02091E80023FD40C08A
:105610002091E80022FD32C02091E80020FFE9CF70
:105620004091F3002091F20030E0342BFC01CF01D7
:105630006115710559F02830310540F4819180934E
:10564000F100615071092F5F3F4FF1CF41E02830E9
:10565000310509F040E02091E8002E772093E80022
:10566000C8CF4111C9CF0AC08091B203882361F02D
:10567000853061F08091E80083FD0AC08091E800E8
:1056800082FFF2CF80E0089582E0089583E00895DC
:1056900081E008952091B9033091BA0326173707A6
:1056A00048F06115710539F42091E8002E772093B8
:1056B000E80001C0B901FC0120E06115710591F11C
:1056C0008091B203882309F440C0853009F43FC0BB
:1056D0008091E80083FD3DC08091E80082FD2FC0ED
:1056E0008091E80080FFE9CF2091F3008091F200E3
:1056F00090E0922B6115710559F08830910540F4C6
:1057000024912093F1003196615071090196F2CFF6
:1057100021E0089709F020E08091E8008E778093DF
:10572000E800CBCF2111CCCF0AC08091B2038823EF
:1057300061F0853061F08091E80083FD0AC08091BE
:10574000E80082FFF2CF80E0089582E0089583E0D0
:10575000089581E00895982F973058F59093E900C7
:10576000981739F07091EC002091ED005091F00005
:1057700003C0242F762F50E021FF19C03091EB0099
:105780003E7F3093EB003091ED003D7F3093ED0094
:105790003091EB0031603093EB007093EC0020937C
:1057A000ED005093F0002091EE0027FF07C09F5FAF
:1057B000D3CF8F708093E90081E0089580E0089551
:1057C0008091B30387FF11C08091E80082FD05C07E
:1057D0008091B2038111F8CF11C08091E8008B77DE
:1057E0000BC08091B203882349F08091E80080FFCC
:1057F000F8CF8091E8008E778093E800089520919B
:10580000E4003091E50095E64091EC00842F817032
:1058100040FF22C08091E80080FD1CC08091B2034F
:10582000882391F0853091F08091EB0085FD10C0C8
:105830004091E4005091E5004217530729F39A0183
:10584000915011F784E0089582E0089583E008956F
:1058500081E0089580E008954091E80042FFDECFA6
:1058600008950E949F2C0E94A72CE0EEF0E080811A
:1058700081608083E8EDF0E080818F77808319BCC0
:10588000A7EDB0E08C918E7F8C9380818F7E80839A
:105890001092B10308950F931F93CF93DF930E944B
:1058A0009F2C0E94A72CC8EDD0E088818F77888339
:1058B00088818068888388818F7D888319BC109255
:1058C000B2031092AE031092B0031092AF0300EE39
:1058D00010E0F80180818B7F8083888181608883DC
:1058E00042E060E080E00E94AB2BE1EEF0E08081DE
:1058F0008E7F8083E2EEF0E0808181608083808112
:1059000088608083F80180818E7F808388818061B8
:105910008883DF91CF911F910F910895E8EDF0E01A
:1059200080818F7E8083E7EDF0E0808181608083DD
:1059300084E082BF81E08093B1030C944B2CE8EDAE
:10594000F0E080818E7F80831092E20008951092B3
:10595000DA001092E10008951F920F920FB60F9295
:1059600011242F933F934F935F936F937F938F9364
:105970009F93AF93BF93EF93FF938091E10082FFDA
:105980000BC08091E20082FF07C08091E1008B7F15
:105990008093E1000E941C2F8091DA0080FF1FC0DD
:1059A0008091D80080FF1BC08091DA008E7F8093A9
:1059B000DA008091D90080FF0DC080E189BD82E1CD
:1059C00089BD09B400FEFDCF81E08093B2030E943F
:1059D000F62805C019BC1092B2030E9404298091D8
:1059E000E10080FF19C08091E20080FF15C0809126
:1059F000E2008E7F8093E2008091E20080618093DC
:105A0000E2008091D80080628093D80019BC85E0C4
:105A10008093B2030E9408298091E10084FF30C086
:105A20008091E20084FF2CC080E189BD82E189BDC4
:105A300009B400FEFDCF8091D8008F7D8093D800FF
:105A40008091E1008F7E8093E1008091E2008F7E63
:105A50008093E2008091E20081608093E200809177
:105A6000AE03882311F084E007C08091E30087FD36
:105A700002C081E001C083E08093B2030E94092943
:105A80008091E10083FF29C08091E20083FF25C05F
:105A90008091E100877F8093E10082E08093B203F0
:105AA0001092AE038091E1008E7F8093E10080919F
:105AB000E2008E7F8093E2008091E200806180931B
:105AC000E20042E060E080E00E94AB2B8091F000B9
:105AD00088608093F0000E940729FF91EF91BF91A9
