:100000000C9472040C948F040C948F040C948F0441
:100010000C948F040C948F040C948F040C948F0414
:100020000C948F040C948F040C94122E0C94E42ED8
:100030000C945D240C948F040C948F040C948F0406
:100040000C948F040C948F040C948F040C948F04E4
:100050000C948F040C94C5240C948F040C948F047E
:100060000C948F040C948F040C948F040C948F04C4
:100070000C948F040C948F040C948F040C948F04B4
:100080000C948F040C948F040C948F040C948F04A4
:100090000C948F040C948F040C948F040C948F0494
:1000A0000C948F040C948F040C948F04E704EA04DE
:1000B000ED04F004F304F604F904FC07020809084F
:1000C000150821082D0839086408690873086708AD
:1000D0006C0871086F08A309A509B009A709A90947
:1000E000AB09AD09AF09B209B409B609C109B8092C
:1000F000BA09BC09BE09C009C309AF19AF19E11992
:10010000E119181A381AA11BFF1B7A1AFF1B271BAB
:10011000271B981BFF1BFF1BF91B341B341B341BB5
:10012000341B341B341B341B341B341B341B341B57
:10013000341B341B341B341B341B451B521B591BF3
:10014000601B6A1B8C1C8C1C9E1C9E1C951C9E1C80
:100150009E1C9E1C8C1C8C1C9A1C9E1C9E1C9A1CFB
:10016000512F782F6A30782F6A30C42FE72F6A30EA
:100170003D304C3007634236B79BD8A71A396856D2
:1001800018AEBAAB558C1D3CB7CC5763BD6DEDFDB9
:10019000753EF6177231BF000000803F05A84CCDB8
:1001A000B2D44EB93836A9020C50B9918688083CB1
:1001B000A6AAAA2ABE000000803F6572676F646F1E
:1001C000785F657A2F36613039613266366334364E
:1001D000303438316531383666204020302E362EA6
:1001E0003232302D362D673438346338352D64691A
:1001F000727479000000F0A1115002510061E10019
:10020000000000001E00340004003300000FAE00A8
:100210001F003600120014000007035120003700B1
:1002200008000D00E3002C002100130018000E0050
:100230000004AC0022001C000C001B000000AD00FC
:1002400039002B00000029000000AB0002532800F9
:1002500000004C000000A900230009000700050071
:100260000000490024000A000B001000E600AA006C
:100270002500060017001A00E7002A0026001500D6
:10028000110019000007045127000F0016001D007F
:10029000000FA800000002510071E50000000000FE
:1002A0000000010001000100010000000100140035
:1002B00004001D000100010001001A0016001B00CF
:1002C0000100010001000800070006000100010014
:1002D00001001500090019000100010001001700CC
:1002E0000A000500000001000100010000000100FB
:1002F00000000100010001000000010000000100F9
:1003000001001C000B00110000000100010018009A
:100310000D0010000100010001000C000E0036006D
:1003200001000100010012000F0037000100010070
:1003300001001300330038000100010010500100DB
:100340000100010001000000450001000100010062
:10035000010000003A0038001E02380201000100CE
:100360003B0031001F023102010001003C0034005B
:1003700020023402010001003D002D0021022D0267
:10038000010001003E003700220236020000010099
:1003900001003300000001000000010001003302F1
:1003A00000000100000001003F0036002302370278
:1003B0000000010040002E0024022E020100010076
:1003C00041003500550035020100010042002F00B8
:1003D00026022F02010001004300300027023002F4
:1003E00001000100440001000100010001000000C3
:1003F00001000100010001000100000001000100F6
:10040000010001000100010001004A00500001004C
:10041000010001000100520051004E0001000100E6
:1004200001004D004F004B000100010001000100E0
:1004300001000100000001000100010000000100B6
:10044000000001005300580000006300000001009C
:1004500001004600470048000000010001005F0065
:100460005C00590001000100620060005D005A005C
:1004700001000100010061005E005B00010001005D
:100480005400550056005700010001000100010012
:100490000100010001000000010001000100010055
:1004A0000100000001000100F70001000100F6005A
:1004B0000100FB00F20001000100F5000100F00066
:1004C000F100FA000100F4000100FC00F300F90063
:1004D0000100010001000100F8000100000001001E
:1004E0000100010000000100000001000100010006
:1004F0000000010000000100E85C0100C25C010096
:1005000000000100E95C0100C95CC35C010001005E
:10051000EA5C0100CA5CE75C01000100EB5C0100E1
:10052000C55C010001000100EC5C0100C65C01003B
:1005300001000100010001000100010001000000B4
:1005400000000000000000002A2B2800000000002E
:100550000000000000000000000000290000000072
:100560002C1E3420212224342627252E362D3738E0
:10057000271E1F202122232425263333362E3738E9
:100580001F0405060708090A0B0C0D0E0F101112A7
:10059000131415161718191A1B1C1D2F3130232D73
:1005A000350405060708090A0B0C0D0E0F10111271
:1005B000131415161718191A1B1C1D2F3130354C22
:1005C000000000000000000000000000000000002B
:1005D000000000000000000000000000000000001B
:1005E0000001010101010100010101010000000001
:1005F00000000000000000000000010001000101F7
:1006000001010101010101010101010101010101DA
:1006100001010101010101010101010000000101CD
:1006200000000000000000000000000000000000CA
:1006300000000000000000000000000101010100B6
:1006400000047F3F1F643214643214783C1E1E1471
:100650000A056801F000B40078005A0000000000AC
:100660000001010101010101010102020202020275
:100670000202020303030303030303040404040448
:10068000040505050505060606060607070707080B
:100690000808080909090A0A0A0A0B0B0B0C0C0CBA
:1006A0000D0D0D0E0E0F0F0F101011111112121350
:1006B000131414151516161717181819191A1A1BCA
:1006C0001C1C1D1D1E1F1F20202122222324252526
:1006D00026272728292A2B2B2C2D2E2F2F3031325D
:1006E00033343536363738393A3B3C3D3E3F40416E
:1006F000424344464748494A4B4C4D4F5051525350
:10070000555657585A5B5C5E5F6062636466676902
:100710006A6C6D6E707173747678797B7C7E808183
:10072000838486888A8B8D8F91929496989A9B9DCC
:100730009FA1A3A5A7A9ABADAFB1B3B5B7B9BBBDD9
:10074000BFC1C4C6C8CACCCFD1D3D6D8DADCDFE1AA
:10075000E4E6E8EBEDF0F2F5F7FAFCFF0403300015
:10076000000016034500720067006F0044006F0030
:100770007800200045005A00000016034500720072
:1007800067006F0044006F007800200045005A00A9
:1007900000000403090409023B00020100A0FA0959
:1007A00004000001030101000921110100012240A0
:1007B000000705810308000A090401000103000085
:1007C0000009211101000122C00007058203200059
:1007D0000A1201100100000008EDFE0713010001DC
:1007E00002030105010902A10185020901A1000519
:1007F0000919012905150025019505750181029545
:1008000001750381010501093009311581257F95A5
:10081000027508810609381581257F9501750881C3
:1008200006050C0A38021581257F95017508810699
:10083000C0C005010980A10185031601002603003F
:100840001A81002A8300751095018100C0050C09EA
:1008500001A1018504160100269C021A01002A9CB0
:1008600002751095018100C005010906A1018505E9
:10087000050719E029E71500250195087501810292
:100880000508190129059505750191029501750362
:1008900091010507190029EF1500250195F0750153
:1008A0008102C005010906A101050719E029E71524
:1008B00000250195087501810295017508810105E2
:1008C0000819012905950575019102950175039196
:1008D000010507190029FF150026FF009506750878
:1008E0008100C00011241FBECFEFDAE0DEBFCDBF14
:1008F00011E0A0E0B1E0E8EDF8E602C005900D924D
:10090000A43DB107D9F723E0A4EDB1E001C01D92E9
:10091000AA3BB207E1F70E94342B0C946A340C9482
:10092000000080B38C7080BB81B3836F81BB08955E
:1009300084B1807F84B985B1807F85B98AB1837F96
:100940008AB98BB1837F8BB93E9846980895CF932F
:10095000E82F873090F58091000190910101892B5B
:1009600009F049C0CE2F64E670E080E40E942806BA
:100970009093010180930001892BD1F464E670E02B
:1009800082E10E947F069093010180930001892BF0
:1009900079F481E090E001C0880FCA95EAF764E637
:1009A00070E080950E947F06909301018093000182
:1009B00084E690E0CF910C94D40690E0FC01379748
:1009C000E730F105C0F4EA5AFF4F0C940F34209A37
:1009D000289811C0219A29980EC0229A2A980BC0F3
:1009E000239A2B9808C0529A5A9805C0539A5B983C
:1009F00002C03E9A4698CF910895089508950C94A8
:100A0000FE04CF93DF930E94660790E0909301016C
:100A1000809300010E9498040E949104A9E2B2E030
:100A200025ED31E0E7E3F2E04EE04E0F11921D922A
:100A300080E090E0E901C80FD91F18820196863046
:100A40009105C1F72A5F3F4F4E13F0CFDF91CF9151
:100A50000C94DC080E94660790E09093010180935B
:100A600000010E9498040E949104E7E3F2E08EE006
:100A70008E0F11928E13FDCF0895CF93DF93E62F43
:100A8000F0E0E75DFD4F40814827808386E0689F66
:100A9000F0011124EB52FE4F20E030E080E061E0F5
:100AA00070E050E0AAE0B22F9081992319F09150A4
:100AB000908307C0EB01022E01C0CC0F0A94EAF725
:100AC0008C2BEA0102C0D595C795BA95E2F7C0FD17
:100AD000A0832F5F3F4F31962630310521F7DF91FC
:100AE000CF910895CF93DF93D82F873008F040C07F
:100AF0008091000190910101892B09F042C064E6C8
:100B000070E080E40E942806909301018093000128
:100B1000892B11F0C0E027C064E670E083E10E94F9
:100B20007F069093010180930001892B99F764E679
:100B300070E081E40E9428069093010180930001F7
:100B4000892B41F784E690E00E94AF0697FF05C02D
:100B50009093010180930001DDCFC82FC0951092C2
:100B600001011092000184E690E00E94D4060AC0C0
:100B70009FB1CFB1C07FC695C6959370C92BC09564
:100B800001C0C0E06D2F8C2F0E943D05282F2095BD
:100B9000ED2FF0E0E95CFD4F908192238C23892BAF
:100BA000DF91CF910895EF92FF920F931F93CF9310
:100BB000DF938091000190910101892B91F0809148
:100BC000D4018F5F8093D40181110BC00E9466070E
:100BD00090E09093010180930001892B11F40E9411
:100BE000F80687E3E82E82E0F82E0EE312E0C0E07C
:100BF0008C2F0E94A704D7E0DC0F8D2F0E94A70442
:100C00008C2F0E947205F70181937F018D2F0E9426
:100C10007205F80181938F010E949804CF5FC7305D
:100C200039F70E94E60881E0DF91CF911F910F9183
:100C3000FF90EF900895E82FF0E0E95CFD4F808190
:100C4000089508951092B9008CE08093B80008953B
:100C5000EF92FF920F931F93CF93DF93182FEB0127
:100C60001092BC0084EA8093BC000E948F247C0117
:100C70009091BC0097FD0EC0CF3F8FEFD807C1F316
:100C80000E948F248E199F098C179D0788F38EEF81
:100C90009FEF2EC09091B900987F983041F09091CD
:100CA000B900987F903119F08FEF9FEF21C010931A
:100CB000BB0084E88093BC000E948F248C0190913B
:100CC000BC0097FD0CC0CF3F8FEFD807C1F30E9447
:100CD0008F24801B910B8C179D0788F3D8CF8091B0
:100CE000B900887F883111F08034F1F680E090E01F
:100CF000DF91CF911F910F91FF90EF9008950F9387
:100D00001F93CF93DF93EB018093BB0084E8809324
:100D1000BC000E948F248C019091BC0097FD0EC0F6
:100D2000CF3F8FEFD807C1F30E948F24801B910B18
:100D30008C179D0788F38EEF9FEF0CC02091B900B0
:100D4000287F81E090E0283211F480E090E09195D6
:100D500081959109DF91CF911F910F9108950F9384
:100D60001F93CF93DF93EC0184E88093BC000E9433
:100D70008F248C019091BC0097FD0EC0CF3F8FEF68
:100D8000D807C1F30E948F24801B910B8C179D07FD
:100D900088F38EEF9FEF03C08091BB0090E0DF915E
:100DA000CF911F910F9108950F931F93CF93DF93CE
:100DB000EC0184E98093BC000E948F248C01909107
:100DC000BC0094FF0EC0CF3F8FEFD807C1F30E9445
:100DD0008F24801B910B8C179D0788F38EEF9FEF5C
:100DE00002C080E090E0DF91CF911F910F910895B4
:100DF00056985E9825982D9826982E9827982F9883
:100E00008FEF90E0909389008093880090938B00FF
:100E100080938A0090938D0080938C00259A2D9A60
:100E20002FEF80E792E0215080409040E1F700C032
:100E30000000269A2E9A2FEF80E792E02150804002
:100E40009040E1F700C00000279A2F9A2FEF80E72B
:100E500092E0215080409040E1F700C000002598CA
:100E60002D982FEF80E792E0215080409040E1F7ED
:100E700000C0000026982E982FEF80E792E02150C6
:100E800080409040E1F700C0000027982F985698C6
:100E90005E9825982D9826982E9827982F98089533
:100EA00089EA8093800089E08093810024982C98BF
:100EB0003F988AB18F7C8AB96E98479A8BB18063CC
:100EC0008BB9769A0E94F8060C94FD0480E290E0BB
:100ED00090930101809300018091450281110EC021
:100EE0000E94220681E0809345022FEF83ED90E37C
:100EF000215080409040E1F700C0000064E670E0BF
:100F000080E40E9428069093010180930001892BC0
:100F100009F050C064E670E080E00E947F06909384
:100F2000010180930001892B09F044C064E670E060
:100F300080E00E947F069093010180930001892B3D
:100F4000C9F564E670E08FE30E947F06909301018B
:100F500080930001892B71F584E690E00E94D4060D
:100F600064E670E080E40E9428069093010180937B
:100F70000001892BF9F464E670E08CE00E947F06A2
:100F80009093010180930001892BA1F464E670E045
:100F900080E00E947F069093010180930001892BDD
:100FA00049F464E670E08FE30E947F0690930101AC
:100FB0008093000184E690E00E94D40680910001B5
:100FC0000895611108C0FC018281882321F08AEB19
:100FD00091E00E94D90880E090E00895FC01E65E6F
:100FE000FC45E730F10508F053C0DB01E35AFF4F41
:100FF00012968C910C940F34882309F44AC00E94F5
:101000007B2344C0882309F444C081E00E94C011BE
:101010003DC08823F1F10E94C31181E00E94C011FC
:101020004FEF6FEF80EF90E02FC0882391F10E9487
:10103000C31181E00E94C01140E86FEF88E790E0A3
:1010400023C0882331F10E94C31181E00E94C011A6
:101050004FEF6FEF86E290E017C08823D1F00E9437
:10106000C31181E00E94C01140E86FEF8CE291E073
:101070000BC0882371F00E94C31181E00E94C0114F
:101080004FEF6FEF80E090E00E94561180E00895EE
:1010900081E00895CF92DF92EF92FF926B017C0185
:1010A0000E94BD2256985E9825982D9826982E98D5
:1010B00027982F9890E0FC013197E730F105A8F4CC
:1010C000EC59FF4F0C940F34259A2D9A0EC0259A97
:1010D0002D9A269A2E9A09C0259A2D9A04C0259AEF
:1010E0002D9A269A2E9A279A2F9AC701B601FF9019
:1010F000EF90DF90CF90089581E008950C94EE0773
:10110000CF93282F30E0F901E05CFA4FC491F90148
:10111000E054FA4F2491222359F081EE0E94C41723
:101120008C2F0E94C4178C2F0E94FD1881EE04C0E2
:101130008C2F0E94C4178C2FCF910C94FD180F9305
:101140001F93CF93DF93EC01062FFE018491882338
:1011500059F19E012F5F3F4F813041F4E901F901C0
:101160001491812F0E94C417812F0DC0823031F459
:10117000E901F90184910E94C4170AC0833031F457
:10118000E901F90184910E94FD1802C00E948008C3
:101190002196802F8823C9F2EFE9FFE03197F1F71C
:1011A00000C000008150F6CFDF91CF911F910F91C9
:1011B000089560E00C949F080E940D23811102C0E5
:1011C0000E947B230E94340E0C9450070C94FF0461
:1011D000282F2F7041F0822F90E02A3010F44D9686
:1011E00008950697089587E290E0089508950C9475
:1011F000F6080C94F70808950E947A1C0E94FB08D8
:101200002FEF84E39CE0215080409040E1F700C044
:1012100000000C94EB24FF920F931F93CF93DF9366
:101220008C01FC01C081D18180918F02811113C09A
:101230008281882349F0CE010E94AD21F82E682FCB
:10124000CE010E94502104C0CE010E948021F82EC0
:10125000BE018F2D04C0CE010E94AD21BE010E94AF
:10126000A60BEC01B8010E947E08882309F466C22F
:10127000B801CE010E94AF0E882309F45FC2CC3CB6
:10128000FCE5DF0741F4F8018281882309F456C2A6
:101290000E94900F53C2CD3C8CE5D80708F01EC1C8
:1012A000C43C9CE5D90761F4F8018281882309F4E4
:1012B00045C20E947E228272E1F40E94BD113EC2AC
:1012C000C53CECE5DE0708F0C7C0C531FCE5DF072B
:1012D00098F0C23CFCE5DF0709F48CC008F492C02A
:1012E000F8018281882309F429C20E947E22827239
:1012F00021F70E94AF1122C2C2308CE5D80708F452
:1013000052C0F8018281882309F459C00E940D233C
:10131000811102C00E947B230E94202390E09093C1
:10132000AC038093AB03FE01E350FC45E231F105D1
:1013300030F4E559FF4F8091AB030C940F3480914A
:10134000AB03816027C0826025C0846023C08061B8
:1013500021C080621FC080641DC080681BC0846083
:10136000886018C08E7F16C08D7F14C08B7F12C01E
:101370008F7E10C08F7D0EC08F7B0CC08F770AC010
:101380008B7F877F07C087FB222720F991E0922778
:1013900090FB87F98093AB038091AB030E942423D9
:1013A0000E947A1CCBC1C1159CE5D90781F0C130E0
:1013B000DC45A9F081E080934B0280934C02C80188
:1013C000DF91CF911F910F91FF900C947C08F80151
:1013D0008281882309F4B2C10E94FC08AFC1F801E0
:1013E0008281882309F4AAC180912E0381608093B1
:1013F0002E03A4C1F8018281882309F49FC10E94B1
:1014000018129CC1C631DC45A9F60E947E22282F05
:10141000F801828140910F0150911001882379F0E9
:101420002A7A91E009F490E090934602911102C06B
:1014300069E201C065E3CA010E94E2230AC080910B
:101440004602811102C069E201C065E3CA010E943F
:10145000ED230E944B2272C1F8018281C83CFCE559
:10146000DF0731F4882309F469C10E94131166C1B2
:10147000C93C9CE5D907C8F4C63CECE5DE0731F46D
:10148000882309F45BC10E94E51058C1C73CDC45C4
:1014900030F4882309F452C10E94C1104FC188233F
:1014A00009F44CC10E94FC1049C1CA3C9CE5D90713
:1014B00031F4882309F442C10E9453113FC1CB3C4F
:1014C000DC4530F4882309F439C10E94331136C158
:1014D000882309F433C10E947B0F30C1C43DFCE571
:1014E000DF0791F4F8018281882309F427C10E9463
:1014F000720F893128F00E94720F823208F4F9CEFF
:1015000089E10E94C0111AC1C53D8CE5D80708F0D9
:1015100068C0F8018281C03DFCE5DF0771F48823D3
:1015200009F40CC10E94720F893028F00E94720FDA
:101530008E3008F4DECE89E0E4CFC13D9CE5D907CA
:1015400040F5CE3CECE5DE0771F4882309F4F6C0E3
:101550000E94720F823028F00E94720F853008F4CA
:10156000C8CE82E0CECFCF3CDC4528F4882309F4F6
:10157000E5C081E0C6CF882309F4E0C00E94720F65
:10158000863028F00E94720F883008F4B2CE86E0D0
:10159000B8CFC23D9CE5D90771F4882309F4CEC0C9
:1015A0000E94720F853128F00E94720F873108F473
:1015B000A0CE85E1A6CFC33DDC4570F4882309F4B5
:1015C000BDC00E94720F8F3028F00E94720F8431CC
:1015D00008F48FCE8FE095CF882309F4AFC088E15F
:1015E00090CFC83DFCE5DF0759F5F80182818823DB
:1015F00061F010924C020E948F2490934A028093D3
:10160000490280E20E946D1999C080914C028823A2
:1016100021F080E20E94741991C08091490290915A
:101620004A020E949B24883C910598F780E20E9420
:10163000741988E20E94C41788E20E94FD187EC0D7
:10164000C93D8CE5D80708F058C0F8018281C63D35
:10165000FCE5DF0751F5882351F010924B020E9400
:101660008F24909348028093470282E0CBCF0E9460
:101670007E2285FF05C081E080934B0280934C025F
:1016800080914B0281110FC08091470290914802D6
:101690000E949B24883C910530F486E20E94C41786
:1016A00086E20E94FD1882E0B5CFC73DDC4528F4F4
:1016B000882309F443C083E224CF81119ACF0E948A
:1016C0007E2281FF05C081E080934B0280934C0213
:1016D00080914C0281119DCF8091490290914A02E4
:1016E0000E949B24883C910508F093CF87E20E94DA
:1016F000C41787E20E94FD188CCFCC3DECE5DE07D5
:1017000041F4F80182818823C9F082E00E94D52B40
:1017100015C0CD3DFCE5DF0739F4F801828188234F
:1017200069F00E947B230AC0CB3DDC4509F042CE24
:10173000F8018281882311F080E0E8CF80E0DF911A
:10174000CF911F910F91FF900895089596E0799F92
:10175000F001112494E5899FE00DF11D1124E60F9D
:10176000F11DEE0FFF1FE850FE4F859194910895F3
:10177000880F991FFC01EC50FE4F859194910895BC
:10178000CF93DF930E94A60B0E947D0DEC01811583
:1017900020E59207F0F5811530E4930708F029C1A0
:1017A000883E910500F5803E910508F0A2C1883A77
:1017B000910570F4853A910508F0A3C08130910538
:1017C00009F497C108F448C1049708F092C144C1D4
:1017D0008F3B910508F4A0C0803C910508F43CC102
:1017E000805C9109F8C08115904258F4C11581E0E0
:1017F000D80708F07EC1C03FD10508F42DC1D065DF
:1018000078C1C11590E3D90708F0E9C0CE019F70F7
:10181000E2C0811525E5920708F043C0811534E543
:10182000930708F0FDC0811542E5940708F5C1153E
:1018300081E5D80708F0E0C02C2F237081E090E00C
:1018400002C0880F991F2A95E2F79C689E0174E0F8
:10185000369527957A95E1F72370922BCF70C69530
:10186000C69540E2C49FE0011124C82BD92B41C189
:10187000869586959E0123703327C115D34508F0C0
:10188000C0C040E2849FC0011124C1E0D0E002C08A
:10189000CC0FDD1F2A95E2F78C2B9D2BEC01DC6829
:1018A00028C181152AE5920798F4811539E5930737
:1018B00008F0C1C08115964508F4B7C0C11588E588
:1018C000D80708F4C9C0DC2FCC27C06FD06A11C17B
:1018D000C1159BE5D90708F4BFC0C1152CE5D20797
:1018E00008F4B7C0CE0190568115904208F0B4C0FC
:1018F0008D2F8F710E94FA0DDD27D0628F71D82B4A
:10190000F8C0853A910509F4AAC0863A910509F014
:10191000A9C0C2E8D0E4EDC0883A910509F4A5C099
:10192000893A910509F4A4C08A3A910509F4A3C043
:101930008B3A910509F4A2C08C3A910509F4A1C033
:101940008B3B910509F4A0C08C3B910509F49FC025
:101950008D3A910509F49EC0803B910509F49DC024
:101960008E3A910509F49CC08F3A910509F49BC009
:10197000813B910509F49AC0823B910509F499C015
:10198000833B910509F498C0843B910509F497C005
:10199000853B910509F496C0863B910509F495C0F5
:1019A000873B910509F494C0883B910509F493C0E5
:1019B000893B910509F492C08D3B910509F491C0D2
:1019C0008E3B910509F490C08A3B910509F48FC0C4
:1019D000C0E0D4E48EC00E94B80BEC018AC0CE01F6
:1019E0009927D3FF03C0EC01D86C83C0EC01D06C05
:1019F00080C0DF70D06A7DC0DC2FCC27C16FD06A79
:101A000078C040E2849FC0011124C1E0D0E002C050
:101A1000CC0FDD1F2A95E2F7C82BD92BDA6869C0F5
:101A2000D82FCC27C46FD06A64C0CF71DD27DC2FDC
:101A3000CC27D0625EC08F70806E90E0906A24E008
:101A4000D695C7952A95E1F7CF709C013C2BE9010B
:101A500050C0DD27D0664DC0C0E0D0E04AC0C1E82C
:101A6000D0E447C0C3E8D0E444C0C2EED4E441C0EF
:101A7000C9EED4E43EC0CAEED4E43BC0C5EBD4E426
:101A800038C0C6EBD4E435C0C3EBD4E432C0C4EBF9
:101A9000D4E42FC0C7EBD4E42CC0CCECD4E429C0F0
:101AA000CDECD4E426C0C3E8D5E423C0CAE8D5E42D
:101AB00020C0C2E9D5E41DC0C4E9D5E41AC0C1E222
:101AC000D6E417C0C3E2D6E414C0C4E2D6E411C021
:101AD000C5E2D6E40EC0C6E2D6E40BC0C7E2D6E447
:101AE00008C0CFE6D4E405C0C0E7D4E402C0CAE22F
:101AF000D6E4CE01DF91CF9108958238910549F166
:101B0000B0F48133910509F458C048F48932910545
:101B100009F44EC08A32910509F454C00895853302
:101B2000910509F440C08933910599F00895833EE9
:101B3000910529F138F4803E910591F0823E91059E
:101B4000A1F00895863E9105F9F0873E910531F1A7
:101B500008952091AB0320FD3AC021FD38C00895BF
:101B60008091AB0380FD35C032C08091AB0382FF12
:101B700032C08091AB0384FD30C083EE39C08091C8
:101B8000AB0382FD28C0F5CF8091AB0383FF27C054
:101B90008091AB0384FD21C087EE2AC08091AB0306
:101BA00083FD1DC0F5CF8091AB0385FD1AC01BC01E
:101BB0008091AB0385FD17C014C08091AB0386FDF7
:101BC00014C015C08091AB0386FD11C00EC080EE1D
:101BD0000FC089E30DC082EE0BC080E009C086EE25
:101BE00007C089E205C085E303C08AE201C081E342
:101BF00090E008959091AB0392FF0DC0282F2871BB
:101C0000283019F4877F846006C0282F247124307F
:101C100011F48B7F886093FF0DC0282F2871283125
:101C200019F4877E846106C0282F2471243111F4B1
:101C30008B7E886194FD877E0895CF93DF938130FA
:101C400020E8920768F0FB012281222349F0EC0191
:101C50000E944A0ECE019F770E94920E0E947F0E34
:101C600081E0DF91CF9108958CE090E00E942234D2
:101C700090E0A0E0B0E08093600390936103A093B4
:101C80006203B09363030895609160038CE090E079
:101C90000C9436340E947E2280934D020E94912241
:101CA00080916003813071F048F08230D9F0843047
:101CB000F9F486EE0E94651988E118C082EE0E9450
:101CC000C41716C080EE0E94C41781EE0E94C4178C
:101CD00088E10E94651981EE0E94FD1880EE0E9445
:101CE000FD1806C082EE0E94C41787E50E946519A0
:101CF0008FE39CE90197F1F700C0000008958091FF
:101D00006003813021F038F0823029F007C08CE286
:101D10000E94651903C082EE0E94FD1880914D0259
:101D20000C948E220F931F93CF93DF938C01CCE002
:101D3000D0E0C8010C2E02C0969587950A94E2F770
:101D40008F700E94E8080E9465192497CC3F8FEF9E
:101D5000D80779F7DF91CF911F910F9108950F93D5
:101D60001F93CF93DF93EC018B01FB0182818823CA
:101D700019F1C23EFCE5DF07C1F050F4C03EECE5CE
:101D8000DE0781F0C13EFCE5DF07B1F481E010C061
:101D9000C33E8CE5D80759F0C43EECE5DE0761F49C
:101DA00084E006C01092600305C082E001C083E0B9
:101DB000809360030E94440EB801CE01DF91CF9161
:101DC0001F910F910C941D0EEF92FF920F931F9392
:101DD000CF93DF93E901662309F44BC0242F30E051
:101DE000EFEFF0E0E61BF109B901E69F9001E79FF4
:101DF000300DF69F300D1124232F8B01031B110989
:101E00005CE3E52EF12CB7010E94E733FB01BC0136
:101E1000069FC001079F900D169F900D1124B701DA
:101E20000E94E733E230F105B1F040F4309779F0E9
:101E3000319711F5832F242F461B21C0E430F10583
:101E4000A1F068F03597C1F4842F861B18C0832F4A
:101E5000262F230F14C0862F830FE42F03C0E42FF7
:101E6000E61B842F432F2E2F0AC0842F462F430FAB
:101E700006C0842F242F03C080E020E040E0E42F40
:101E8000F0E0E45AF94F4491E22FF0E0E45AF94FC0
:101E90009491E82FF0E0E45AF94FE4914983988354
:101EA000EA83DF91CF911F910F91FF90EF900895FA
:101EB00088E090E00C942A34AB01BC0188E090E00B
:101EC0000C944834E4E6F3E083E0808310926503E9
:101ED0008FEF8283838314826081718182819381F9
:101EE0000C945C0F8091640380FF03C086958F7310
:101EF000089580E008958091680390E00196843011
:101F0000910514F083E090E080936803609164038E
:101F10007091650380916603909167030C945C0F48
:101F20008091680390E0019797FF02C080E090E005
:101F30008430910514F083E090E080936803609111
:101F400064037091650380916603909167030C941C
:101F50005C0F8091640380FF06C06FE070E089E64B
:101F600093E00C94D41580E090E0FC01E759FC4F1D
:101F700011821082128204968C339105B1F7EDCF55
:101F80009091640390FF0FC020E030E0F901E75921
:101F9000FC4F8183608342832C5F3F4F2C3331059C
:101FA000A9F70C94A90F0895CF93DF9300D000D028
:101FB000CDB7DEB72091640320FF0AC09E012F5FDA
:101FC0003F4F0E94E40E4B8169818A810E94C00FBD
:101FD0000F900F900F900F90DF91CF9108955F9227
:101FE0006F927F928F929F92AF92BF92CF92DF9229
:101FF000EF92FF920F931F93CF93DF9300D000D007
:10200000CDB7DEB78C01E62EF42E522E80916403FC
:1020100080FF89C0982F9E77923061F49E012F5FD8
:102020003F4FC8010E94E40E4B8169818A810E9462
:10203000C00F59C0E82FE695EF739EE39E0F9F7384
:10204000943018F4F09067034EC09AE39E0F9F738C
:10205000993068F4881F8827881F90916503292F7D
:10206000220F022F082B97FB112710F93CC087E2A3
:102070008E0F8F738A30B8F5F0E07997E0FD02C0DB
:1020800021E001C02FEFEE7FEE5AF94F8591949138
:102090006FE070E00E94E73326034001279F900C19
:1020A0001124580188E9A81A8EEFB80A89E6C82ECB
:1020B00083E0D82E98E6692E77247394C501B30186
:1020C0000E94E73396014F2D6E2D0E94E40EA80C5E
:1020D000B91C84E0C80ED11C85EAC81683E0D80676
:1020E00069F70E94A90F8091640300FB87F9809330
:1020F0006403902F9695809165038078892B10FB5F
:1021000087F980936503E0926603F0926703552098
:1021100051F0609164037091650380916603909122
:1021200067030E945C0F0F900F900F900F90DF914C
:10213000CF911F910F91FF90EF90DF90CF90BF90C4
:10214000AF909F908F907F906F905F900895282F11
:10215000E4E6F3E09081991F9927991F3091650378
:10216000832F880F482F492B37FB552750F9CA0179
:102170000C9668E671E00E94FB33438162810C9407
:10218000EF0F81E00C94A710282F90916403991F02
:102190009927991F30916503832F880F482F492B6A
:1021A00037FB552750F9CA014C3051051CF4845AAD
:1021B0009E4F01C00C9768E671E00E94FB3340918E
:1021C0006703609166030C94EF0F81E00C94C410D8
:1021D000E4E6F3E03081331F3327331F909165032A
:1021E000592F550F97FB992790F9282F43816FEFAF
:1021F000852F832B0C94EF0F81E00C94E810E4E61C
:10220000F3E03081331F3327331F90916503592F3B
:10221000550F97FB992790F9282F438160E0852F70
:10222000832B0C94EF0F81E00C94FF104091670317
:10223000242F30E0243F310514F4445F01C04FEFF8
:1022400030916403331F3327331F90916503592F57
:10225000550F97FB992790F9282F60916603852FDA
:10226000832B0C94EF0F81E00C94161140916703BF
:10227000242F30E02C30310514F04C5001C040E0E8
:1022800030916403331F3327331F90916503592F17
:10229000550F97FB992790F9282F60916603852F9A
:1022A000832B0C94EF0F81E00C94361121E00C94F9
:1022B000EF0F20E00C94EF0FCF939091640390FF09
:1022C00040C09178811102C0926007C0853210F041
:1022D000986403C08F73880F982B909364036623D0
:1022E00051F0609164037091650380916603909151
:1022F00067030E945C0FC09164036C2F66956F7337
:1023000070E04BE050E084E091E00E941534892BAE
:1023100019F010926B0203C081E080936B02CC1F16
:10232000CC27CC1F90916503892F880F97FB9927A5
:1023300090F940916703609166038C2BCF910C94C8
:102340005911CF910895682F9091640396959F73CA
:1023500081E0890F853208F081E00C945C1181E006
:102360000C94A311682F9091640396959F738FEF3F
:10237000890F09F484E20C945C1181E00C94B21191
:1023800061E00C945C11E4E6F3E08081816080837D
:1023900086958F730C94C01160E00C945C11809151
:1023A0002E03816080932E030E940D23811104C0AF
:1023B0000E947B230E94620F0E94580F6093640367
:1023C0007093650380936603909367036E7761F45F
:1023D0000E94620F0E94580F60936403709365031C
:1023E000809366039093670381E080936B028091F2
:1023F000640380FF04C086958F730C94CC110895FC
:10240000E4E6F3E080818E7F808360817181828148
:1024100093810E945C0F10926B022FEF80E792E095
:10242000215080409040E1F700C000000C94A90FBB
:102430008091640380FD0C9400120C94C311CF931F
:10244000C82F8091690290916A020E949B24EC2F10
:10245000F0E0E25BF94FE491F0E08E179F0708F49B
:1024600043C00E948F2490936A0280936902609116
:10247000680270E080E090E00E94E83120E030E007
:102480004FE753E40E940B312BED3FE049E450E469
:102490000E9411330E947E330E9485312BE43AE37F
:1024A0004EE25FE30E949E3020EF3BEF48ED52E4A6
:1024B0000E9411330E94B731462F80916403881F18
:1024C0008827881F90916503292F220F97FB992752
:1024D00090F960916603822B0E94D40F809168026C
:1024E00090E0019680936802CF910895CF93C82F12
:1024F00080916602909167020E949B24EC2FF0E08D
:10250000E55BF94FE491F0E08E179F07E8F00E9439
:102510008F249093670280936602409167036091D5
:10252000660380916402909165020E94D40F8091AD
:10253000640290916502019668E671E00E94E733BB
:102540009093650280936402CF910895CF92DF92B9
:10255000FF920F931F93CF93DF93F82E8091620227
:10256000909163020E949B24EF2DE695F0E0E85BDA
:10257000F94FE491F0E08E179F07E8F10E948F2455
:10258000909363028093620209E613E0C0E0D0E01A
:1025900088E6C82EDD24D394809160029091610278
:1025A0008C0F9D1FB6010E94E7339801409167038D
:1025B000609166030E94E40E68960C5F1F4FC83658
:1025C00081E0D80749F70E94A90F2091600230915D
:1025D0006102F0FE0AC0C9010196BE010E94E73304
:1025E000909361028093600206C0215031093093BC
:1025F000610220936002DF91CF911F910F91FF90B4
:10260000DF90CF900895AF92BF92CF92DF92EF927A
:10261000FF920F931F93CF93DF93C82F80FF02C0C9
:102620001FEF01C011E080915E0290915F020E9455
:102630009B24C695EC2FF0E0EB5BF94FE491F0E0C2
:102640008E179F0708F466C00E948F2490935F0244
:1026500080935E0229E6C22E23E0D22E3BE6E32ED3
:1026600033E0F32EC0E0D0E0F70131971082F6019D
:102670001082F701108294E0A92EB12C00E0809125
:102680005D02800F87FD815F082E000C990BC81733
:10269000D907E9F4809167038A9DA0018B9D500DB5
:1026A0001124559547955595479580916403881F4A
:1026B0008827881F90916503592F550F97FB9927FD
:1026C00090F9960160916603852B0E94E40E010F3C
:1026D000F1E0AF1AB10899F6219684E0C80ED11C3A
:1026E000E4E0EE0EF11CCF30D10509F0BDCF0E9421
:1026F000A90F80915D02113031F4811102C08EE08A
:1027000007C0815005C090E00196BE010E94FB33D6
:1027100080935D02DF91CF911F910F91FF90EF9019
:10272000DF90CF90BF90AF9008950F931F93CF93FA
:10273000DF93C82F80915B0290915C020E949B24E2
:10274000EC2FF0E0EE5BF94FE491F0E08E179F077D
:1027500008F464C00E948F2490935C0280935B0213
:1027600080E090E0FC01E759FC4F11821082128258
:1027700004968C339105B1F7C0E0D0E00FE010E093
:10278000CE01B8010E94FB33FC0180915A02082E51
:10279000000C990BEE0FFF1FEE0FFF1FC817D90794
:1027A000FCF080910301082E000C990B8C179D07FB
:1027B000BCF09F0127593C4F80916403881F8827F4
:1027C000881F90916503592F550F97FB992790F912
:1027D0004091670360916603852B0E94E40E05C05B
:1027E000E759FC4F1182108212822196CF30D10519
:1027F00039F60E94A90F8091020190915A02980F18
:1028000090935A0220910301280F2093030112167E
:1028100014F49E301CF0819580930201DF91CF91DA
:102820001F910F910895EF92FF920F931F93CF93F3
:10283000DF9380915802909159020E949B24883E18
:102840009340D0F10E948F249093590280935802B4
:10285000C0915602D09157022196C170DD27D093C6
:102860005702C093560289E6E82E83E0F82E10E066
:1028700008E7812F8695FE01E80FF11DCF018170D9
:10288000992797014091670360916603FC010E9FB1
:10289000C0010F9F900D11240E94E40E1F5FF4E011
:1028A000EF0EF11C1F3029F7DF91CF911F910F918F
:1028B000FF90EF900C94A90FDF91CF911F910F9192
:1028C000FF90EF900895CF93DF9300D000D0CDB765
:1028D000DEB780915402909155020E949B24E0E45F
:1028E000F6E02591349182179307C0F1809153024D
:1028F00081110CC09E012F5F3F4F4FEF6FEF80E0C3
:1029000090E00E94E40E8A81809353020E948F24FB
:10291000909355028093540280915202813051F07D
:1029200028F0823061F4409153020AC08091530232
:1029300040E007C06091530240E080E003C040E007
:1029400080E060E00E94C00F8091520290E001960A
:1029500063E070E00E94FB33809352020F900F906F
:102960000F900F90DF91CF9108950F931F93CF9306
:10297000DF9380915002909151020E949B24843FEA
:10298000914008F448C00E948F2490935102809394
:102990005002C9E6D3E000E010E020914E023091F1
:1029A0004F028091640390916503073011051CF478
:1029B000232B79F002C0232B61F4881F8827881FFE
:1029C000592F550F97FB992790F99E014091670366
:1029D0000AC0881F8827881F592F550F97FB9927F2
:1029E00090F99E0140E060916603852B0E94E40E01
:1029F0000F5F1F4F24960F30110579F60E94A90F23
:102A000080914E0290914F02019681709927909388
:102A10004F0280934E02DF91CF911F910F91089545
:102A200080916B028823D9F190916403892F869558
:102A30008F732EE3280F2F73243018F482500C94D8
:102A40001F122AE3280F2F73233018F486500C949A
:102A5000761227E3280F2F73263018F489500C9430
:102A6000A61221E3280F2F73263018F48F500C94F0
:102A700003132BE2280F2F73233018F485510C9485
:102A80009513892F8E77803311F40C9413148634A8
:102A900011F40C946314883411F40C94B514089553
:102AA000882319F05198599A02C0519A5998509810
:102AB000589A95E09A95F1F70000509A589895E049
:102AC0009A95F1F70000882311F0519A599885E002
:102AD0008A95F1F7000008958BB18C7F8BB95098DF
:102AE000589A5198599A85E08A95F1F7000008950F
:102AF0008AB18C7F8AB985E08A95F1F70000519AF6
:102B0000599885E08A95F1F70000509A589885E029
:102B10008A95F1F7000008955098589A85E08A95B3
:102B2000F1F700005198599A85E08A95F1F7000075
:102B30000895CF93DF93D82FC8E08D2F80780E941F
:102B40005015DD0FC150C9F780E00E94501585E097
:102B50008A95F1F7000085E08A95F1F7000080E0A2
:102B6000DF91CF9108952BB1342F309523233BB1C2
:102B7000432B3FB7F894FC01680F791FE617F7075E
:102B800089F0819198E04BB9000000C087FF2BB914
:102B9000880F000000C000C000C02BB900C09A958B
:102BA00091F7ECCF3FBF0895AF92BF92CF92DF92E3
:102BB000EF92FF920F931F93CF93DF938C01EB0162
:102BC000CFB6D090BC00F8948091BC008B7F8093EE
:102BD000BC000E946C150E94781584E80E9499152B
:102BE000CC0FDD1FCC0FDD1F78015801AC0EBD1ED0
:102BF000EA14FB0431F0F70181917F010E949915DD
:102C0000F7CF0E948C15CFBED092BC00579A40E8F7
:102C1000BE01C801DF91CF911F910F91FF90EF90FE
:102C2000DF90CF90BF90AF900C94B315909371024A
:102C3000809370020895E0917002F09171023097D4
:102C400021F00190F081E02D099480E00895E09159
:102C50007002F0917102309799F0209120012223A7
:102C600059F02091AB0327FF07C0DC012C9111968E
:102C70002C93119725E02C930280F381E02D099489
:102C80000895E0917002F0917102309739F022E0DE
:102C9000DC012C930480F581E02D099408952091A6
:102CA0006E0230916F028217930771F090936F025A
:102CB00080936E02E0917002F0917102309721F0E2
:102CC0000680F781E02D0994089520916C023091DF
:102CD0006D028217930771F090936D0280936C02DE
:102CE000E0917002F0917102309721F00084F1853B
:102CF000E02D0994089585B7806885BF85B7806801
:102D000085BF089508950E947B160C94821681E079
:102D100008950E9486240E9401050E941D250C949E
:102D2000CF11CF92DF92EF92FF920F931F93CF9329
:102D3000DF93CDB7DEB72B970FB6F894DEBF0FBE8B
:102D4000CDBF0E94D3050E948716811111C08FEF5D
:102D500089838A831B820E948F248160782F9D83C0
:102D60008C8349815A816B818D810E94751756C071
:102D700083E7C82E82E0D82E00E010E0E02E802FFE
:102D80000E941B06F60141916F01F42EF82631F4E2
:102D90000F5F1F4F0E30110589F7D9CF90912E0389
:102DA00091FF04C08B870E9421068B8520E030E0D4
:102DB0004F2D50E0922FBA01022E02C075956795F3
:102DC0000A94E2F760FF24C02E83EF8221E030E016
:102DD000690102C0CC0CDD1C9A95E2F790E08C21D1
:102DE0009D21892B09F420E028870E948F2481608F
:102DF000782F9A8789874E815F8168858A850E94AE
:102E00007517F801ED58FD4F8081C826C08206C0B5
:102E10002F5F3F4F2630310569F6BACF0E94B026AA
:102E2000109172020E941B161817A1F00E941B1627
:102E3000809372022B960FB6F894DEBF0FBECDBF03
:102E4000DF91CF911F910F91FF90EF90DF90CF9086
:102E50000C94F9082B960FB6F894DEBF0FBECDBFC9
:102E6000DF91CF911F910F91FF90EF90DF90CF9066
:102E70000895DC0111962C9111978C91682F70E0C8
:102E800041E050E001C0440F8A95EAF712968C9118
:102E9000129730E0882329F0809191028823E9F08D
:102EA00006C0F901EF57FD4F90819423B1F086E001
:102EB000829FF001839FF00D1124E60FF71FEE0FA4
:102EC000FF1FEF5DFE4F808191818D939C93F901EF
:102ED000EF57FD4F8081482B06C0F901EF57FD4F9A
:102EE00040958081482340830895CF93DF93CDB7E9
:102EF000DEB72B970FB6F894DEBF0FBECDBF942F71
:102F00004F83252F588769877A878B874A855B850A
:102F1000452B21F02F3F09F59F3FF9F4DE01119673
:102F200086E0FD0111928A95E9F785E0FE0137966A
:102F300001900D928A95E1F749815A816B817C81DC
:102F40008D819E810E94211F2B960FB6F894DEBFC3
:102F50000FBECDBFDF91CF910895CE0107960E949D
:102F60003917DCCFFC01808191810E94EC21929580
:102F70009F70963041F48091910291E0892780936F
:102F80009102909390020895CF93DF931F92CDB753
:102F9000DEB7882309F42DC1682F8238C1F40E945E
:102FA0001B1681FD26C169E380910F0190911001EC
:102FB0000E94E2230E944B222FEF81EE94E02150E9
:102FC00080409040E1F700C0000069E319C08338F9
:102FD00011F50E941B1680FD0CC163E580910F0165
:102FE000909110010E94E2230E944B222FEF81EE6C
:102FF00094E0215080409040E1F700C0000063E57C
:1030000080910F01909110010E94ED230F90DF91AC
:10301000CF910C944B228438C1F40E941B1682FD80
:10302000E8C067E480910F01909110010E94E223B3
:103030000E944B222FEF81EE94E02150804090407F
:10304000E1F700C0000067E4DBCF8CEF860F813A28
:1030500070F4862F69830E94E62869818111C9C0B6
:1030600080910F01909110010E94E223CFCF80E266
:10307000860F883048F4677081E001C0880F6A9538
:10308000EAF70E948122C2CF8BE5860F833088F455
:10309000653A29F0663A31F083E890E005C081E8AE
:1030A00090E002C082E890E00F90DF91CF910C9405
:1030B0004F1688E5860F873108F091C0683A09F409
:1030C00045C0693A09F445C06A3A09F445C06B3A0B
:1030D00009F445C06C3A09F445C06B3B09F445C09E
:1030E0006C3B09F445C06D3A09F445C0603B09F4F6
:1030F00045C06E3A09F445C06F3A09F445C0613BDA
:1031000009F445C0623B09F445C0633B09F445C07E
:10311000643B09F445C0653B09F445C0663B09F4CE
:1031200045C0673B09F445C0683B09F445C0693BAD
:1031300009F445C06D3B09F445C06E3B09F445C038
:103140006A3B09F445C080E090E044C082EE90E024
:1031500041C089EE90E03EC08AEE90E03BC085EB36
:1031600090E038C086EB90E035C083EB90E032C051
:1031700084EB90E02FC087EB90E02CC08CEC90E0CB
:1031800029C08DEC90E026C083E891E023C08AE856
:1031900091E020C082E991E01DC084E991E01AC06D
:1031A00081E292E017C083E292E014C084E292E0F0
:1031B00011C085E292E00EC086E292E00BC087E289
:1031C00092E008C08FE690E005C080E790E002C082
:1031D0008AE292E00F90DF91CF910C946516603FE8
:1031E00040F0862F0E94B8250F90DF91CF910C946C
:1031F000A5260F90DF91CF910895882309F464C02C
:10320000823879F40E941B1681FF5EC069E38091C9
:103210000F01909110010E94E2230E944B2269E36A
:1032200010C08338B1F40E941B1680FF4DC063E5C7
:1032300080910F01909110010E94E2230E944B2285
:1032400063E580910F01909110010E94ED230C9491
:103250004B22843879F40E941B1682FF35C067E444
:1032600080910F01909110010E94E2230E944B2255
:1032700067E4E7CF9CEF980F913A10F4682FE1CF05
:1032800090E2980F983050F4877091E001C0990F48
:103290008A95EAF7892F0E948722D9CF9BE5980F5C
:1032A000933020F480E090E00C944F1698E5980F4E
:1032B000973120F480E090E00C946516803F20F078
:1032C0000E9420260C94A5260895CF93C82F0E9413
:1032D000C4178C2FCF910C94FD18882321F00E94E5
:1032E00081220C944B220895882321F00E9487228A
:1032F0000C944B2208958F929F92AF92BF92DF92CF
:10330000EF92FF920F931F93CF93DF937C01D62F01
:10331000C72FFC01058102950F70128111110E94C7
:10332000A1220E944422882379F0112369F080E2CF
:103330008D0F883048F082E00E942D220E944422A6
:1033400091E0D82ED92601C0D12CAC2EA2948FE0CA
:10335000A822B12CF501E358FF4F0C940F348C2FA9
:10336000807FCF70882311F0C295C07F112399F020
:10337000CC2309F4C8C180E28D0F883010F0D11140
:1033800004C08C2F0E94812203C08C2F0E949422A3
:103390000E944B22B8C18D2F0E94FD18CC2309F446
:1033A0002EC280E28D0F883010F0D11104C08C2F16
:1033B0000E94872203C08C2F0E949A220E944B22D7
:1033C0001EC28C2F807FCF70803211F0C295C07FDB
:1033D000DD2319F0D130C9F021C0112371F0002391
:1033E00041F0013031F40E94BA228C2B0E94B422A9
:1033F00006C20E94BA228C2B3FC1002319F0013073
:1034000009F4FDC10E94B72211C0112321F002303E
:1034100008F0F5C107C00111F2C108C0112321F065
:10342000011171C18C2F28C101117EC18C2F2AC1BD
:103430008C2F86958695837090E0009719F0019700
:1034400061F0DDC1112321F08D2F9C2F937002C0FC
:1034500080E090E00E944F16E2C1112321F08D2FF1
:103460009C2F937002C080E090E00E946516D7C147
:103470001123F9F0D53F51F0D63F71F0D43FA9F4B4
:103480008091A5039091A60381600BC08091A50354
:103490009091A603826005C08091A5039091A60338
:1034A00084609093A6038093A5038D2F0E94B82576
:1034B0001EC0D53F51F0D63F71F0D43FA9F48091A2
:1034C000A5039091A6038E7F0BC08091A5039091D8
:1034D000A6038D7F05C08091A5039091A6038B7FE5
:1034E0009093A6038093A5038D2F0E9420260E940F
:1034F000A52695C18C2F837009F050C011118BC186
:103500008D2F829586958770880F880F9D2F9F70CD
:10351000892E912CA12CB12C082E04C0880C991C4A
:10352000AA1CBB1C0A94D2F7D4FF14C00FE010E011
:1035300020E030E0B901A80104C0440F551F661F08
:10354000771F8A95D2F7CB01BA0160957095809567
:10355000909503C060E070E0CB01C695C695C3703E
:10356000D0E0C230D10561F0C330D10581F06829C7
:1035700079298A299B29219771F00E9466204BC1E5
:10358000682979298A299B290E94782044C10E94B0
:103590006620C501B4010E9454203DC1112319F0D9
:1035A0008C2F817001C08695882309F434C18D2F3A
:1035B000829586958770880F880F9D2F9F70892E22
:1035C000912CA12CB12C082E04C0880C991CAA1C8B
:1035D000BB1C0A94D2F7D4FF14C00FE010E020E027
:1035E00030E0B901A80104C0440F551F661F771FC2
:1035F0008A95D2F7CB01BA01609570958095909528
:1036000003C060E070E0CB01C695C695C3704C2F37
:1036100050E04230510569F04330510589F0682986
:1036200079298A299B294130510571F00E942B216B
:10363000F2C0682979298A299B290E943D21EBC083
:103640000E942B21C501B4010E941921E4C08D2FD5
:1036500090E0FC01E05EF109E531F10508F04FC0B2
:10366000E357FF4F0C940F34DF708C2F8F711123B1
:1036700031F00E94B2208D2F0E946D19C0C00E94AF
:10368000D3208D2F0E947419BAC0112339F0011173
:10369000B6C08C2F8F710E94F820B1C0023008F0A4
:1036A000AEC0F7CF112339F08C2F8F710E94B2205A
:1036B000A6C01123C9F38C2F8F710E94D3209FC005
:1036C000112329F08C2F8F710E949D2098C00E9499
:1036D000982095C0112349F0CF718C2F0E94B22001
:1036E00063E08C2F0E9424228AC081E00E942D2258
:1036F000023008F484C082E00E942D2280C0112391
:1037000031F0002389F28D2F0E94C41778C0002366
:1037100091F2D93349F45FEF67EE73E051506040A6
:103720007040E1F700C000008D2F0E94FD1867C0B7
:103730004C2F4F706D2FC7010E94E1070E94C51FDB
:103740006EC0D23FB1F028F4D03F49F0D13FF9F03C
:1037500028C0D43FB9F058F0D53F71F022C01123F2
:1037600009F447C09091910281E0892708C081E067
:103770001827109391023DC011113BC081E0809346
:10378000910237C0111135C01092910232C011233D
:1037900029F080919002882329F329C0002311F396
:1037A00028C0809190020023C1F0882341F09091BD
:1037B000910281E0892780939102109290028D2FCF
:1037C000112319F00E94C41714C00E94FD1886E04E
:1037D000F70111928A95E9F70CC0882351F0111175
:1037E00008C09091910281E0892780939102109204
:1037F00090024C2F4F706D2FC7010E94A50BF8E06F
:10380000AF16B10441F05CF04AE0A41AB10852E0EE
:10381000A516B10420F40E941B160E94F908DD20B1
:10382000E1F00E94202280FD18C0F70112820E9460
:103830001A220E94B220C7010E94391C0E941A223B
:10384000DF91CF911F910F91FF90EF90DF90BF908C
:10385000AF909F908F900C94D320DF91CF911F91C8
:103860000F91FF90EF90DF90BF90AF909F908F905F
:1038700008950F931F93CF93DF93EC018881998173
:103880002B813C81232BB9F09F3F11F48F3F99F09E
:10389000CE010E940B09882371F0688179818A81A9
:1038A0000E94F7218C010E944F210E945120B801F3
:1038B000CE010E947B19DF91CF911F910F91089546
:1038C0000E94A1220E94B1220E944B220E944B27FB
:1038D0000E94A52680E090E00E944F1680E090E0D4
:1038E0000C94651680910F01909110010E94F823AD
:1038F0000C94601C0E9491220C94721C0E94EC217A
:10390000E92FE295EF70F0E03297EE30F105B0F478
:10391000EE55FF4F0C940F34803F91F018F4803E29
:1039200068F40EC0843F51F40BC0803E48F0813FE4
:1039300029F406C093FB882780F9089580E0089554
:1039400081E00895CF93DF9300D000D01F92CDB7D0
:10395000DEB70F900F900F900F900F90DF91CF91E7
:103960000895CF93DF9300D000D000D0CDB7DEB75D
:1039700026960FB6F894DEBF0FBECDBFDF91CF9174
:1039800008951F93CF93DF93C091920216E0809128
:103990009302C81799F0D0E01C9FF0011D9FF00D15
:1039A0001124EC56FD4F40815181628173818481E5
:1039B00095810E94B11C2196C770E9CFDF91CF910C
:1039C0001F9108954091C4025091C5026091C602B2
:1039D0007091C7028091C8029091C9020C94B11CE9
:1039E0008091C90282958F7009F054C08091C602FF
:1039F000882309F44FC080919202A09193026091B4
:103A0000C4027091C5024091C7025091C802B6E04D
:103A10008A1709F43FC090E041155105C1F17F3F7D
:103A200011F46F3FA1F1B89FF001B99FF00D11247F
:103A3000EC56FD4F218172132AC02081621327C0EA
:103A40002281211124C0238134812417350710F4E9
:103A500021503109241B350B283C3105C0F420913D
:103A6000C9022F7020612093C90226E0289FF0012F
:103A7000299FF00D1124E756FD4F80818F708061E2
:103A8000808384EC92E00E94391C0C94C11C019646
:103A90008770BECF0895CF92DF92EF92FF920F937F
:103AA0001F93CF93DF93CDB7DEB762970FB6F8942D
:103AB000DEBF0FBECDBF8C0185E0F801DE011D9693
:103AC00001900D928A95E1F7D8014C9111965C9185
:103AD000119712966C9112971396CD90DC901497D3
:103AE0003091C4027091C5028091C7029091C802C2
:103AF000009709F46BC17F3F19F43F3F09F466C199
:103B0000E090C602EE2009F4C0C02091C902C81698
:103B1000D90628F0F601E81BF90BCF0104C0809507
:103B200090958C0D9D1DFF24F394883C910578F0B1
:103B3000F12C207F09F0C6C07C2DD98AC88A8989DA
:103B40000E94A21C84EC92E00E94391CB1C0822F1A
:103B5000807F09F046C0751314C0341312C0611180
:103B600010C02F7020612093C9020E94E21C84ECD7
:103B700092E00E94391C8091C902D80115968C935D
:103B80002EC0CD2819F15F3F11F44F3FF9F0F62E0A
:103B900061111CC0809192022091930236E082173D
:103BA00009F45AC090E0389FF001399FF00D1124BC
:103BB000EC56FD4F7181571306C07081471303C047
:103BC0007281711103C001968770E9CFF62E6623CA
:103BD00009F427C18091C90281608093C902F12C48
:103BE00020C1751308C0341306C0611104C0809150
:103BF000C902D801C3C04D875E878D859E856A8BBB
:103C00000E947E1C6A898823E1F16623D1F120910C
:103C1000C902822F82958F7090E0029774F0809194
:103C2000C4029091C50298878F831986DB86CA8665
:103C30002C87CE0107960E94391C86E0F801A4EC7F
:103C4000B2E001900D928A95E1F70E94F01C0E946B
:103C5000E21CFF24F394E5C04D875E878D859E8529
:103C60000E94EC21292F22952F7030E0223031055F
:103C70000CF0CBC09F7009F0C5C0805E883008F49E
:103C8000D0C0C8010E94391CE4CFC816D90608F478
:103C900053C0F601E81BF90BCF01883C910508F4ED
:103CA00050C0F12C7C2DD98AC88A89890E94A21C17
:103CB000E4ECF2E086E0DF011D928A95E9F70E94CC
:103CC000E21CAFC0751314C0341312C0611110C0D0
:103CD0008091C902F8018583C8010E94391C86E0E1
:103CE000E4ECF2E0DF011D928A95E9F7FE2C99C021
:103CF0004D875E878D859E856A8B0E947E1C6A89B2
:103D0000882309F4BECF662309F4BBCF2091C902F2
:103D1000822F82958F7090E002970CF48ECF809165
:103D2000C4029091C5029A8389831B82DD82CC8272
:103D30002E83CE0101967FCF809590958C0D9D1D91
:103D4000ACCFF62E662309F49CCF75132EC0341326
:103D50002CC02091C90220FD1FC0822F82958F7038
:103D6000D9F0D80115962C9315978F3049F08F5FB5
:103D7000982F9295907F822F8F70892B15968C9318
:103D8000C8010E94391C86E0F801A4ECB2E0019061
:103D90000D928A95E1F793CF86E0F801A4ECB2E0AA
:103DA00001900D928A95E1F73CC04D875E878D8525
:103DB0009E850E947E1C811140CF8091C902816046
:103DC0008093C902C8010E94391C2BC0662309F4E4
:103DD00058CF4D875E878D859E850E947E1CF82E6C
:103DE000882309F44ECF86E0F801A4ECB2E00190FC
:103DF0000D928A95E1F784EC92E00E94B2170E943E
:103E0000F01C5DCF811139CF0CC0243031050CF08E
:103E100038CF9F7009F431CFF8019581907F09F078
:103E20002CCF8F2D62960FB6F894DEBF0FBECDBF9C
:103E3000DF91CF911F910F91FF90EF90DF90CF9086
:103E400008951F93CF93DF93CDB7DEB72C970FB6AE
:103E5000F894DEBF0FBECDBF4F83588769877A873E
:103E60008B879C87CE0107960E944B1D882369F0A3
:103E70008F8198852A853B85232BF1F19F3F09F09F
:103E800063C08F3F09F060C037C086E0FE013796FF
:103E9000DE01119601900D928A95E1F76F81788588
:103EA000EA85FB85309741F17F3F11F46F3F21F1A7
:103EB0002091930230E0C9010196877099274091C3
:103EC000920250E08417950709F447C069837A830A
:103ED000FD83EC8396E0929FD001939FB00D112457
:103EE000AC56BD4FFE01319601900D929A95E1F7C7
:103EF000809393020E94C11C16E0809192029091DF
:103F000093028917C1F1189FC00111248C569D4F4F
:103F10000E944B1D882379F1E09192021E9FF001CF
:103F20001124EC56FD4F408151816281738184815F
:103F300095810E94B11C8091920290E00196877059
:103F4000992780939202D9CF4F81588569857A85C8
:103F50008B859C850E94B11CCFCF0E947A1C109249
:103F6000930210929202E4ECF2E086E0DF011D92EF
:103F70008A95E9F7C1CF2C960FB6F894DEBF0FBE35
:103F8000CDBFDF91CF911F910895EF92FF920F93D4
:103F90001F93CF93DF938C01892B09F46CC0F12C14
:103FA000EE24E394E8012196F8018491843740F4EB
:103FB000843008F051C0813081F0823019F15BC04B
:103FC000853709F444C0A8F19CE7980F903708F0B2
:103FD00052C08F770E94FD1841C00E5F1F4FFE0137
:103FE000C49180E28C0F883048F4C7708E2D01C0D8
:103FF000880FCA95EAF70E94A42214C08C2F0E9451
:10400000C4172DC00E5F1F4FFE01C49180E28C0FBC
:10401000883058F4C7708E2D01C0880FCA95EAF712
:104020000E94AA220E944B221AC08C2F0E94FD18C7
:1040300016C00E5F1F4FFE01C491CC2381F08FE9A3
:104040009FE00197F1F700C00000C150F6CF0E5F6E
:104050001F4FFE01F49003C00E94C4178E018F2DE4
:10406000882309F49FCFEFE9FFE03197F1F700C013
:1040700000008150F5CFDF91CF911F910F91FF90FC
:10408000EF90089508950C9442200E94432060937D
:1040900005037093060380930703909308030C9421
:1040A000601C08950C9445200F931F930091050305
:1040B000109106032091070330910803602B712BA8
:1040C000822B932B1F910F910C9445200F931F93DC
:1040D0000091050310910603209107033091080316
:1040E00060237123822393231F910F910C94452009
:1040F0000F931F930091050310910603209107036E
:104100003091080360277127822793271F910F9111
:104110000C9445200C944A080E948A206093010365
:104120007093020380930303909304030C94601C28
:1041300060E070E0CB010C948C200F931F9341E062
:1041400050E060E070E08A019B0104C0000F111F85
:10415000221F331F8A95D2F7C901B8011F910F9111
:104160000C948C200F931F9341E050E060E070E0CE
:1041700004C0440F551F661F771F8A95D2F78091A0
:10418000010390910203A0910303B09104038A01FB
:104190009B01082B192B2A2B3B2BC901B8011F911E
:1041A0000F910C948C200F931F9341E050E060E03E
:1041B00070E004C0440F551F661F771F8A95D2F721
:1041C0004095509560957095809101039091020300
:1041D000A0910303B09104038A019B0108231923D2
:1041E0002A233B23C901B8011F910F910C948C2005
:1041F0000F931F9341E050E060E070E004C0440F73
:10420000551F661F771F8A95D2F780910103909101
:104210000203A0910303B09104038A019B010827C4
:1042200019272A273B27C901B8011F910F910C9428
:104230008C200F931F930091010310910203209192
:10424000030330910403602B712B822B932B1F915E
:104250000F910C948C200F931F93009101031091E8
:10426000020320910303309104036023712382230E
:1042700093231F910F910C948C200F931F93009107
:10428000010310910203209103033091040360277E
:104290007127822793271F910F910C948C200895EA
:1042A000292F220F920F990F890FA82FA695A69557
:1042B000A695877051E001C0550F8A95EAF785E011
:1042C000A89FD001112420E030E070E0F901EA0F4E
:1042D000FB1FE653FD4F4081CB01022E02C0969595
:1042E00087950A94E2F78170992781958427852321
:1042F000842780832F5F3F4F2530310539F708959C
:10430000292F220F920F990F890F682F66956695B6
:104310006695982F977085E0689FB001112440E062
:1043200050E080E0FA01E60FF71FE653FD4F2081D1
:1043300030E0092E02C0369527950A94E2F72170E5
:104340003327042E01C0220F0A94EAF7822B4F5F15
:104350005F4F4530510531F70895CF92DF92EF92CC
:10436000FF920F931F93CF93DF938C01C0900503AF
:10437000D0900603E0900703F090080380910103BA
:1043800090910203A0910303B0910403C82AD92A93
:10439000EA2AFB2ACFE1D0E0D701C6010C2E04C0E7
:1043A000B695A795979587950A94D2F780FF06C092
:1043B000B8018C2F0E94C00B019721F4219760F760
:1043C00080E001C08C2FDF91CF911F910F91FF9062
:1043D000EF90DF90CF900895CF93DF93EC010E9490
:1043E000AD21BE010E94C00BDF91CF9108951F93B4
:1043F000CF93DF93EB0190918F02992321F0CB01B2
:104400000E94EC2113C0882349F0CB010E94AD210A
:10441000182F682FCE010E94502104C0CB010E94AA
:104420008021182FBE01812F0E94C00BDF91CF91F8
:104430001F91089580910903859585958595089527
:10444000809109038770089598E0899F9001112455
:10445000262B209309030C94B22020910903809508
:10446000822380930903982F977069F430E0482FD6
:10447000082E000C550B2417350729F085958595D6
:1044800085950C94D320089590910903977081E04D
:1044900009F480E00895E0910F01F09110018091FE
:1044A0002D038083E0910F01F091100190818091A4
:1044B0002C03892B8083E0910F01F09110019081F2
:1044C00080912B03892B808380910A03882381F0BC
:1044D000E0910F01F09110019081892B80838091F0
:1044E0000F01909110010E947D23811110920A0307
:1044F00080910F01909110010C94271680912D034B
:10450000089590912D03892B80932D030895809514
:1045100090912D03892380932D03089580932D037B
:10452000089510922D03089590912C03892B809368
:104530002C030895809590912C03892380932C035C
:10454000089510922C03089590912B03892B80934A
:104550002B030895809590912B03892380932B033F
:10456000089510922B03089580930A0308951092E2
:104570000A03089580910A030895CF92DF92EF9283
:10458000FF926C01EE24FF24C114D104E104F10474
:1045900021F0C701B60120E101C020E0C72ED82ECE
:1045A000E92EFF24C114D104E104F10419F0285FBD
:1045B000C701B6016B017C0154E0F694E794D794EF
:1045C000C7945A95D1F7C114D104E104F10419F04C
:1045D0002C5FC701B6016B017C0142E0F694E794C1
:1045E000D794C7944A95D1F7C114D104E104F104DA
:1045F00019F02E5FC701B601DC01CB01B695A79576
:1046000097958795892B8A2B8B2B09F02F5F822F0B
:10461000FF90EF90DF90CF90089580E090E00E94AF
:10462000303421E08D3E9E4F09F020E0822F089526
:1046300082E090E00C94223483E090E00C942234E9
:1046400084E090E00C942234682F84E090E00C9495
:104650003634AB01BC018FE090E00C944834AB01E0
:10466000BC0183E190E00C94483460E070E0CB0141
:104670000C942F2360E070E0CB010E9429230C945E
:1046800035236DEE7EEF80E090E00E94543460E0D0
:1046900082E090E00E94363460E083E090E00E9487
:1046A00036341092050310920603109207031092FD
:1046B000080360E084E090E00E94363460E085E02A
:1046C00090E00E94363460E086E090E00E9436344C
:1046D0006FEF87E090E00E94363440E050E0BA018E
:1046E00088E090E00E94483460E08DE090E00E9415
:1046F00036340C943A230C944123FC013296809179
:104700002001882331F08091AB0387FF02C09EE136
:1047100001C096E080E0915028F021912223D9F346
:104720008F5FF9CF08959C01FC0132969FEF80E0E6
:104730004191461789F09F3F19F4411101C0982F0C
:104740008F5F8630A9F79F3F39F0F901E90FF11D1E
:1047500097FDFA95628308950895FC0132960896B4
:104760002081261301C010823196E817F907C1F79E
:104770000895262F2695269526952E3168F4FC015E
:10478000E20FF11D677021E030E001C0220F6A9551
:10479000EAF78281282B22830895262F26952695D5
:1047A00026952E3170F4FC01E20FF11D677021E0B7
:1047B00030E001C0220F6A95EAF720958281282314
:1047C0002283089520912001222329F02091AB0318
:1047D00027FD0C94B9230C949323209120012223CC
:1047E00029F02091AB0327FD0C94CD230C94AD232D
:1047F00020912001FC013296222331F08091AB03FD
:1048000087FF02C08EE101C086E0DF011D928A951C
:10481000E9F7089508950C940A240E940B248091CE
:10482000B103843049F110922F0320E488E190E035
:104830000FB6F894A895809360000FBE2093600097
:1048400080E00E94F9080E940B2483B7817F846076
:1048500083BF83B7816083BF7894889583B78E7F49
:1048600083BF0FB6F894A89580916000886180930B
:104870006000109260000FBE08950895CF930E94CB
:104880002A050E94D3050E943D24C0E08C2F0E947F
:104890001B06811104C0CF5FCE30C1F701C081E09B
:1048A000CF91089508950C9452240E947A1C0E947E
:1048B0001B160E94F9080C9453241F920F920FB6F6
:1048C0000F9211248F939F93AF93BF9380912F03E7
:1048D000811113C08091A7039091A803A091A9030F
:1048E000B091AA034196A11DB11D8093A703909397
:1048F000A803A093A903B093AA03BF91AF919F917E
:104900008F910F900FBE0F901F90189582E084BD7D
:1049100093E095BD9AEF97BD80936E0008952FB7F1
:10492000F8948091A7039091A803A091A903B09156
:10493000AA032FBF0895CF92DF92EF92FF920F93B9
:104940001F932FB7F8944091A7035091A80360914B
:10495000A9037091AA032FBF6A017B01EE24FF24F3
:104960008C0120E030E0C016D106E206F30610F418
:10497000415051099A01281B390BC9011F910F9110
:10498000FF90EF90DF90CF90089578941F920F9250
:104990000FB60F9211248F939F93AF93BF93809183
:1049A000A7039091A803A091A903B091AA0301962F
:1049B000A11DB11D8093A7039093A803A093A90301
:1049C000B093AA03BF91AF919F918F910F900FBEAB
:1049D0000F901F901895F89481E08093E00080E29A
:1049E0008093D800E9ECF0E010828FE19EE401971B
:1049F000F1F700C000001DBA109268001CBC10BE88
:104A00001FBA10927A0010926E0010926F001092EE
:104A10007100109272001082ECEBF0E0108214B87A
:104A200017B81AB81DB810BA108215B818B81BB844
:104A30001EB811BA0C94003F08950E940D238111F5
:104A400002C00E947B230E94182380932E030E94A1
:104A5000202390E09093AC038093AB030E941C232F
:104A6000682F70E080E090E00C9452208091330336
:104A700080FF0BC06091140185E0689FB001112494
:104A800075956795759567952BC081FF09C06091F5
:104A9000140185E0689FB00111247595679520C0C9
:104AA00082FF07C06091140185E0689FB001112466
:104AB00017C0909134039923D1F060911301961798
:104AC00088F72091140185E0289F90011124929F7E
:104AD000A001939F500D112470E0CA010E94FB3386
:104AE0006038710540F46115710539F002C065E068
:104AF00070E0862F08958FE7089581E008958091F2
:104B0000330380FF08C06091120170E075956795CE
:104B10007595679521C081FF06C06091120170E014
:104B20007595679519C082FF04C06091120170E00D
:104B300010C0909134039923C1F060911101961730
:104B4000A0F780911201899FC001112470E00E949A
:104B5000FB336038710528F46115710521F0862F4B
:104B600008958FE7089581E0089561E070E0F4CF43
:104B7000803F21F40E943625819504C0813F29F4AD
:104B80000E943625809338030895823F21F40E94C5
:104B90003625819504C0833F29F40E9436258093F1
:104BA00037030895893F19F40E947F2505C08A3F85
:104BB00031F40E947F2581958093390308958B3FBE
:104BC00021F40E947F25819504C08C3F29F40E9426
:104BD0007F2580933A030895843F21F48091360322
:104BE000816017C0853F21F480913603826011C037
:104BF000863F21F48091360384600BC0873F21F407
:104C000080913603886005C0883F31F48091360377
:104C100080618093360308958D3F21F480913303A2
:104C200081600BC08E3F21F480913303826005C008
:104C30008F3F29F480913303846080933303089578
:104C4000803F39F48091380387FF6CC0109238039D
:104C500069C0813F29F4809138031816BCF362C003
:104C600090913703823F29F497FF5CC0109237037D
:104C700059C0833F19F41916CCF354C0893F41F44D
:104C80008091390318160CF04DC0109239034AC0B8
:104C90008A3F29F48091390387FF44C0F6CF8B3FC8
:104CA00039F480913A0387FF3DC010923A033AC02D
:104CB0008C3F29F480913A031816BCF333C0843F2B
:104CC00021F4809136038E7F17C0853F21F48091B7
:104CD00036038D7F11C0863F21F4809136038B7F90
:104CE0000BC0873F21F480913603877F05C0883F42
:104CF00031F4809136038F7E8093360313C08D3F4D
:104D000021F4809133038E7F0BC08E3F21F480917C
:104D100033038D7F05C08F3F29F4809133038B7F50
:104D2000809333038091370381110EC08091380343
:104D300081110AC080913903811106C080913A0324
:104D4000811102C010923403089585E393E00E941C
:104D500041160E948F24909331038093300308956D
:104D60001F93CF93DF9380913003909131030E9482
:104D70009B24AC0190913403992321F020911501DB
:104D800030E006C0209132038AE0289F9001112470
:104D90004217530708F47BC080913703C091380352
:104DA000D091390310913A03811107C0C1116BC032
:104DB000D11169C0111167C06AC09F3F19F09F5F90
:104DC00090933403181624F40E94362580933703F9
:104DD0008091370387FF05C00E9436258195809317
:104DE00037031C1624F40E943625809338038091E3
:104DF000380387FF05C00E943625819580933803CC
:104E0000309137033323E1F0209138032223C1F09E
:104E100045EB3403C0011124892F990F990B00979A
:104E200009F481E08093370335EB2303C00111249B
:104E3000892F990F990B009709F481E0809338032B
:104E40001D1624F40E947F25809339038091390335
:104E500087FF05C00E947F25819580933903111635
:104E600024F40E947F2580933A0380913A0387FFC0
:104E700005C00E947F25819580933A03DF91CF91F1
:104E80001F910C94A5269F3F09F099CFA1CFDF91E8
:104E9000CF911F910895E5E3F3E086E0DF011D92D5
:104EA0008A95E9F710923403109233030895833002
:104EB00081F128F4813059F08230D1F008958530A5
:104EC00009F449C0B8F1863009F456C008958091BC
:104ED0003203262F30E0280F311D2F3F310524F4F7
:104EE000680F6093320308958FEF80933203089523
:104EF00080911501262F30E0280F311D2F3F3105FD
:104F000024F4680F6093150108958FEF80931501C5
:104F1000089580911401262F30E0280F311D2F3F76
:104F2000310524F4680F6093140108958FEF809386
:104F30001401089580911301262F30E0280F311DB0
:104F40002F3F310524F4680F6093130108958FEF0C
:104F500080931301089580911201262F30E0280FCD
:104F6000311D2F3F310524F4680F6093120108951D
:104F70008FEF80931201089580911101262F30E068
:104F8000280F311D2F3F310524F4680F6093110164
:104F900008958FEF809311010895833011F128F463
:104FA000813049F0823091F00895853081F120F10F
:104FB0008630C1F1089580913203681720F4861B72
:104FC0008093320308951092320308958091150161
:104FD000681720F4861B809315010895109215011F
:104FE000089580911401681720F4861B80931401A2
:104FF000089510921401089580911301681720F408
:10500000861B8093130108951092130108958091D7
:105010001201681720F4861B8093120108951092E4
:105020001201089580911101681720F4861B809366
:10503000110108951092110108950F931F93873263
:1050400008F04DC08E3108F093C0803109F47DC066
:1050500008F5873009F46BC068F4863009F0A3C006
:1050600080912E03817F8E7F80932E0381E0809339
:105070003C039AC08B3009F48FC08E3009F093C086
:1050800080912E0382FB222720F991E0922790FB4A
:1050900082F964C0863109F47FC088F4813109F057
:1050A00082C00E947A1C8091AB0387FB222720F9E3
:1050B00091E0922790FB87F98093AB036DC0893113
:1050C00009F46AC08B3109F06EC080912E0381FB18
:1050D000222720F991E0922790FB81F93FC0883385
:1050E00009F45AC050F4893209F458C0853309F4E0
:1050F00055C0873209F452C056C0833409F44EC0FB
:1051000028F48A3308F44FC0895333C0883409F037
:105110004AC00E947A1C0FEF13ED20E301501040AB
:105120002040E1F700C000000E94EB2435C08091D0
:105130002E03982F9095917090FB80F980932E0309
:1051400091112AC0897F877F10C080912E0383FB35
:10515000222720F991E0922790FB83F980932E0378
:105160009923D1F080912E03816080932E0314C087
:105170008D5141E050E060E070E08A019B0104C085
:10518000000F111F221F331F8A95D2F7C901B801E2
:105190000E9452200E947A1C81E006C061E070E00B
:1051A00080E090E0F5CF80E01F910F91089580E0BE
:1051B000089580E008958E518A3030F4E82FF0E0B1
:1051C000E753FE4F8081089580E00895CF93C82F64
:1051D00080913C03813079F018F08230E9F185C08C
:1051E000E0910F01F09110018081813169F08232EC
:1051F00009F07DC009C0E0910F01F091100180819C
:10520000813111F0823261F48C2F0E94D7288111F4
:1052100004C08C2F0E941D281DC081E090E01AC0A0
:105220008C2F0E94D928811114C0C43179F048F420
:10523000CB3079F0C03109F05EC082E080933C034E
:1052400008C0C93219F0C83321F055C010923C0390
:1052500052C081E0817051C0C93279F108F5C43182
:1052600061F1A0F4C73009F044C01092320384E128
:1052700080931501C09314018CE38093130188E09F
:105280008093120188E28093110133C082EE8C0F6B
:10529000863078F58C2F0E94DB2880933B0329C051
:1052A000CE34E9F020F4CB3421F56AE013C0C135E7
:1052B00079F0C235F1F461E00DC080913B038823A1
:1052C00019F010923B0315C081E080933C0315C098
:1052D00061E006C080913B030E9457270AC06AE044
:1052E00080913B030E94CD2704C010923C0380E0D4
:1052F00004C081E002C080E0ADCFCF9108958091DD
:105300005D0308950F931F93CF93DF9300D01F92F7
:10531000CDB7DEB78C010E94E52B823011F08430CE
:1053200021F584E089831B830A8382E08093E9006E
:105330008FEF9091E800815095FD06C095ED9A950C
:10534000F1F700008111F5CF8091E80085FF0DC0D5
:1053500040E050E063E070E0CE0101960E94022C34
:105360008091E8008E778093E8000F900F900F9067
:10537000DF91CF911F910F910895CF93DF9300D0CC
:105380001F92CDB7DEB72091B103243031F523E071
:105390002983805891099B838A8382E08093E90066
:1053A0008FEF9091E800815095FD06C095ED9A959C
:1053B000F1F700008111F5CF8091E80085FF0DC065
:1053C00040E050E063E070E0CE0101960E94022CC4
:1053D0008091E8008E778093E8000F900F900F90F7
:1053E000DF91CF910895CF93DF93EC010E94E52BDD
:1053F000823011F08430F9F482E08093E9009FEF6D
:105400008091E800915085FD06C085ED8A95F1F701
:1054100000009111F5CF8091E80085FF0CC040E0BD
:1054200050E066E070E0CE010E94022C8091E8001E
:105430008E778093E800DF91CF910895CF93DF932B
:10544000EC010E94E52B823011F08430D9F5809177
:105450002001882339F08091AB0387FF03C060E20D
:1054600082E002C068E081E08093E9008FEF9091D4
:10547000E800815095FD06C095ED9A95F1F7000082
:105480008111F5CF8091E80085FF1CC0809120013B
:10549000811105C040E050E068E070E003C070E0BA
:1054A00040E050E0CE010E94022C8091E8008E770F
:1054B0008093E80080E2FE01ADE3B3E001900D923D
:1054C0008A95E1F7DF91CF9108958091B003811122
:1054D00009C00E94972D0E94F42D8091E200846003
:1054E0008093E20008951092B003089508950895FE
:1054F0000C94552442E061EC81E00E94112D42E2BF
:1055000061EC82E00C94112D8091B303833009F497
:1055100053C030F4813071F0823009F48CC00895AA
:105520008A3009F478C08B3009F45EC0893009F004
:105530009AC020C08091B203813A09F094C0809152
:10554000E800877F8093E8008091B6039091B703CD
:10555000892B21F460E28DE393E003C060E080E0FA
:1055600090E070E00E944D2C8091E8008B77809352
:10557000E80008958091B203813209F074C08091EF
:10558000B6039091B703029708F06DC08091E800D0
:10559000877F8093E8008091E80082FD05C08091BC
:1055A000B1038111F8CF5FC08091F10080935D035A
:1055B0008091E8008B7753C08091B203813A09F063
:1055C00052C08091B6039091B703892B09F04BC06C
:1055D0008091E800877F8093E8008091E80080FF59
:1055E000FCCF8091200136C08091B2038132D9F581
:1055F0008091B6039091B703892BA9F58091E800BB
:10560000877F8093E8000E94462D8091B4038093A9
:1056100020010C947A1C8091B203813221F5809193
:10562000E800877F8093E8000E94462D8091B503B3
:1056300080935E0308958091B203813AA1F4809132
:10564000E800877F8093E8008091E80080FFFCCF2E
:1056500080915E038093F1008091E8008E778093C3
:10566000E8000C94462D089584B7877F84BF0FB659
:10567000F894A895809160008861809360001092F2
:1056800060000FBE80E880936100109261000E946C
:1056900083160E94972D0E94F42D8091E200846071
:1056A0008093E20078940E9483300E94891686E1FC
:1056B00091E00E9416168091B103853069F40E9432
:1056C0000D248091AF038823B1F30E943E248823E8
:1056D00091F30E94EC2BEFCF0E9491160E941015BF
:1056E000EACF0C94732B292F332723303105C9F0CF
:1056F00064F42130310581F02230310509F04CC0CD
:105700008BE390E026E937E04BC02132310521F1EF
:105710002232310589F140C082E190E021ED37E08D
:105720003FC099278130910571F02CF4892BA1F5A8
:10573000E2E9F7E00DC08230910541F0039761F591
:10574000ECE5F7E005C0EAE7F7E002C0E2E6F7E0E3
:10575000849190E09F0124C06115710541F0613092
:105760007105D1F489E090E021EC37E019C089E0BF
:1057700090E028EA37E014C06115710541F061300E
:10578000710551F480EC90E023EE37E009C080E42D
:1057900090E023EA38E004C080E090E020E030E0D0
:1057A000FA013183208308950895CF93C82F0E9472
:1057B000D42BC0935F03CF9108958091B1038430BF
:1057C00011F081E0089582E0089580915F038111D6
:1057D00002C00C94DD2B089580E189BD82E189BD72
:1057E00009B400FEFDCF8091D8008F7D8093D80052
:1057F0008091E00082608093E0008091E00081FD74
:10580000FCCF0895CF92DF92EF92FF920F931F93F8
:10581000CF93DF93EC018B016A010E94652D81110A
:1058200033C0C114D10439F0F60180819181081B85
:10583000190BC80FD91FE12CF12C0115110519F115
:105840008091E80085FD16C08091E8008E778093F6
:10585000E800C114D10449F0F60180819181E80E7D
:10586000F91EF182E08285E00FC00E94652D882339
:1058700021F30AC089918093F10001501109FFEFD3
:10588000EF1AFF0ADACF80E0DF91CF911F910F91DD
:10589000FF90EF90DF90CF9008952091B803309162
:1058A000B9032617370748F06115710539F42091BF
:1058B000E8002E772093E80001C0B90140E06115AF
:1058C0007105A9F12091B103222309F443C02530C9
:1058D00009F442C02091E80023FD40C02091E80077
:1058E00022FD32C02091E80020FFE9CF4091F30073
:1058F0002091F20030E0342BFC01CF0161157105DD
:1059000059F02830310540F481918093F1006150C5
:1059100071092F5F3F4FF1CF41E02830310509F089
:1059200040E02091E8002E772093E800C8CF411195
:10593000C9CF0AC08091B103882361F0853061F03E
:105940008091E80083FD0AC08091E80082FFF2CFD9
:1059500080E0089582E0089583E0089581E008954D
:105960002091B8033091B9032617370748F0611525
:10597000710539F42091E8002E772093E80001C0EA
:10598000B901FC0120E06115710591F18091B1032D
:10599000882309F440C0853009F43FC08091E800B5
:1059A00083FD3DC08091E80082FD2FC08091E8001A
:1059B00080FFE9CF2091F3008091F20090E0922BDC
:1059C0006115710559F08830910540F424912093B8
:1059D000F1003196615071090196F2CF21E00897EC
:1059E00009F020E08091E8008E778093E800CBCF2B
:1059F0002111CCCF0AC08091B103882361F085309A
:105A000061F08091E80083FD0AC08091E80082FF88
:105A1000F2CF80E0089582E0089583E0089581E068
:105A20000895982F973058F59093E900981739F01A
:105A30007091EC002091ED005091F00003C0242FF4
:105A4000762F50E021FF19C03091EB003E7F30935C
:105A5000EB003091ED003D7F3093ED003091EB0095
:105A600031603093EB007093EC002093ED00509385
:105A7000F0002091EE0027FF07C09F5FD3CF8F700B
:105A80008093E90081E0089580E008958091B20359
:105A900087FF11C08091E80082FD05C08091B103AD
:105AA0008111F8CF11C08091E8008B770BC08091F5
:105AB000B103882349F08091E80080FFF8CF8091FE
:105AC000E8008E778093E80008952091E4003091FB
:105AD000E50095E64091EC00842F817040FF22C0E4
